:02000002D0002C
:1040000000400D0084AF0D00000006000C0005010B
:0840100004019A080000000001
:04401800BCA60D0035
:1040200009480A49884208B505D0094A824202D0A7
:10403000121A04F042FB0748074A0021121A04F042
:1040400064FB014808BD00BFD0E1032064AD0D0052
:10405000C8E30320C8E30320F1E7032070B5074E4F
:10406000074C03F031FDA41BA4080025A54200D194
:1040700070BD56F8043B98470135F7E734AD0D00A5
:1040800060AD0D0000F096B808B500F0EDF9BDE8A0
:10409000084003F0D1BC01F01BBB01F019BB01F0DB
:1040A0001FBB000008B5034A00210C2001F034FAC0
:1040B000FEE700BF79520D000078B0FA80F04009A9
:1040C00070470123037070477047006A0368DB681C
:1040D0001847000013B5054B1B788DF800303C23C2
:1040E000044601F0A1FC204602B010BDC8E3032045
:1040F00007B50022CDE90022012301F079FA03B0CF
:104100005DF804FB0A4B10B50446036002F016FA92
:10411000214602F014FC03F0B7FB03F0A9FB204694
:10412000044B40F8043B02F0F7FA204610BD00BFF4
:1041300074A70D005CA70D0010B50446FFF7E2FF61
:104140002046242103F0C2FD204610BD0EB403B565
:1041500003AB012153F8042B019303F074F902B06F
:104160005DF804EB03B07047F0B587B010EE107A3D
:1041700010EE905A11EE106A03F086FB04463846A2
:1041800003F012FF02460B463046CDE9042303F04C
:104190000BFFCDE90201284603F006FFDDE9042309
:1041A000CDE9000102492046FFF7D0FF07B0F0BD7E
:1041B000D0A60D0008B503F067FB4FF4165103F0CD
:1041C00053FB144800F0FDFD134B0021188803F049
:1041D000EBFC124B0121188803F0E6FC104B022186
:1041E000188803F0E1FC0F490F48FFF781FF0F49E2
:1041F0000F48FFF77DFF0F490F48FFF779FF0F4981
:104200000F48FFF775FFBDE808400E490E4800F063
:1042100065BD00BF4CE40320D4E10320D0E10320BE
:10422000E0E1032045470D00ECA60D004D420D00D6
:10423000F7A60D0035430D0001A70D00ED430D005D
:104240000BA70D0069410D00E4E3032038B50C46CF
:104250002046314904F09DFA054668B903460246F6
:104260000146052000F0D0FF052102462B4800F052
:1042700087FF2B4B1D6038BD2A49204604F089FA80
:10428000034660B90246052100F0BEFF0521024643
:10429000224800F075FF224B01221A60EBE7224909
:1042A000204604F076FA034660B90522014600F084
:1042B000ABFF05210246194800F062FF184B0222AD
:1042C0001A60D8E71949204604F063FA034668B932
:1042D00001460322022000F097FF052102460F4805
:1042E00000F04EFF0E4B03221A60C4E7104920462F
:1042F00004F04FFA03460028BDD1024603210220F4
:1043000000F082FF05210246044800F039FF044B0B
:1043100004221A60AFE700BF16A70D004CE403208B
:10432000D0E3032032A70D003CA70D0046A70D00E7
:1043300018A70D0038B5274C4FF4FA7220780D46B7
:104340004FF4617103F0A2F9C82001F001FA20785E
:104350004FF4FA724FF4617103F098F91E49284640
:1043600004F017FA044668B90346024601460520E0
:1043700000F04AFF06210246184800F001FF184BE2
:104380001C6038BD1749284604F003FA034660B99B
:104390000246052100F038FF062102460F4800F0D2
:1043A000EFFE0F4B01221A60EBE70F49284604F09D
:1043B000F0F903460028E4D10522014600F024FF6D
:1043C00006210246054800F0DBFE054B02221A607A
:1043D000D7E700BFD0E1032016A70D004CE403206F
:1043E000E0E3032032A70D003CA70D0013B50C46F7
:1043F0000F4800F0E9FB0F49204604F0CAF90146D6
:1044000068B9052203460190104600F0FDFE0199AF
:104410000246094802B0BDE8104000F0B1BE0023DA
:104420001A460521184600F0EFFE00210246F0E78B
:10443000E4E303201AA70D004CE4032038B5046818
:1044400005467CB16368013B63605BB92368204625
:104450009B689847A368013BA3601BB9236820466B
:10446000DB689847284638BD2DE9F041A14C86B05D
:1044700000F012FF2368C01A9F4BD3E900230021EC
:10448000904271EB03030DDB00F006FF206001F0AA
:1044900097F838B102A8994A9949FFF71BFE03A87B
:1044A000FFF7CCFF974B984D1888984C03F0B9FB59
:1044B000C82828602ADD00231A461946052000F086
:1044C000A3FE01210246924800F05AFE2968022309
:1044D0000A2202A8236003F0AAF8029A8D496846CE
:1044E000FFF7F8FD01A8FFF7A9FF02A802F0ECFF13
:1044F000894E012333602368012B3BD00222934273
:10450000326042D100230522194636E0642817DDC7
:1045100000231A461846052100F076FE01210246C6
:104520007B4800F02DFE7A4800F084FC29680123C6
:104530000A2202A8236003F07AF8029A7749CEE7AC
:104540006228D5DC002319461846052200F05CFEDF
:10455000012102466E4800F013FE6D4800F06AFC2F
:10456000296800230A2202A8236003F060F8029A57
:104570006B49B4E700231A460521184600F044FEB3
:1045800004210246624800F0FBFD664D664F288814
:10459000664C03F033FB664B38600A2218784FF400
:1045A0007A7103F073F8634B39681A689142984640
:1045B00022D021680A2202A803F039F8029A5E4943
:1045C0006846FFF787FD01A8FFF738FF02A802F051
:1045D0007BFF288803F012FB012805D12368042BF8
:1045E00012DD0023236004E0288803F007FB002885
:1045F000F4D03B68C8F800302368042B12D8DFE8F9
:1046000003F006393E43480001332360F1E70023FD
:104610001A461946052000F0F7FD022102463C48E3
:1046200000F0AEFD2368454D002B36D12B68002BE2
:104630005BD11A461946052000F0E6FD032102462B
:10464000334800F09DFD2B6824681C4333681C43ED
:104650000AD1022211462346012000F0D5FD214651
:1046600002462B4800F08CFD354800F0E9FA06B010
:10467000BDE8F08100231A4605211846CBE7002348
:10468000052219461846C6E70023032219460220D0
:10469000C1E700231A460321F9E7012B07D12B6854
:1046A000012B22D100231A4605211846C4E7022B0C
:1046B00007D12B68022B18D1002305221946184672
:1046C000BAE7032B07D12F68032F0ED100233A46F8
:1046D00019460220B0E7042B07D12B68042B04D124
:1046E00000231A4603210220A6E7002205231146D3
:1046F0001046A1E7D4E30320D8E10320E7A70D008B
:104700001EA70D00D4E1032060E40320DCE30320B6
:104710004CE403202AA70D00E0E3032034A70D009A
:104720003EA70D00E0E1032064E40320CCE3032076
:10473000D0E10320D8E3032048A70D00D0E30320F5
:10474000E4E3032013B51D4A0C4668461C49FFF7F5
:10475000C1FC01A8FFF772FE20461849194C04F06D
:1047600018F8D8B94FF4FA724FF47A71207802F041
:104770008DFFC82000F0ECFF4FF4FA724FF4FA619D
:10478000207802F083FFC82000F0E2FF2078C822E2
:1047900040F6B83102F07AFF02B010BD20786422F2
:1047A0004FF47A7102F072FFC82000F0D1FF207838
:1047B00064224FF47A7102F069FFEDE7E7A70D007C
:1047C0001EA70D00D0E1032070B5D0E900531426D8
:1047D000044606FB0356AE4204D0284602F074FE9F
:1047E0001435F8E7206800F07BFF204670BD884252
:1047F000F8B504460D46164616D9904215D2A2F1D8
:104800001406751AA1F114072C44B7421CD02CB120
:104810003146204602F0D4FE337C2374304602F049
:1048200053FE143E143CF0E70ED0B5420CD02CB130
:104830002946204602F0C4FE2B7C2374284602F051
:1048400043FE14351434F0E7F8BD2DE9F0410023A0
:10485000C0E9003383604F689F4204460E4623DD63
:104860004FF0140808FB07F000F032FF0546D8B1FE
:10487000D4E9001208FB0212FFF7B9FF206800F02C
:104880002FFF2560A760D6E9007308FB0378B845C1
:1048900008D03946284602F0ADFE3B7C2B74143715
:1048A0001435F4E7736863602046BDE8F0810000CA
:1048B00070B5254B8CB000241C702146012000F0FF
:1048C00053FECDE90044029402F0DEFF1F4C054682
:1048D000694603A8FFF7B9FF264603A906A8FFF714
:1048E000B4FF1B4B46F8043B06A909A8FFF7ADFF30
:1048F00009AA1E21304602F07CF909A8FFF764FFDF
:1049000006A8FFF761FF134B2360256203A8FFF79A
:104910005BFF114B236002F0B7FF4FF4165102F01A
:10492000A3FF01F00BFE214602F0F5F86846FFF701
:104930004BFF0A4800F0F6F806231A4607210848FC
:1049400000F066FA0CB070BDC8E3032028E4032031
:104950005CA70D0070A90D0074A70D00E4E303200F
:104960004CE4032010B5064B044640F82C3B02F003
:10497000ABFD04F10C0002F0A7FD204610BD00BF06
:1049800014A80D0010B50446FFF7ECFF20464421A3
:1049900003F09CF9204610BD70B51B4D1B4C2E68D2
:1049A000A41B1D2C88B02DD990F82E3016F8011CB0
:1049B0000793436B069390F82B30059390F82A30B9
:1049C000049390F82930039390F82830029390F8DC
:1049D0002730019390F826300D4A00930D4B304656
:1049E0005B2918BF13460C4A214600F089FE0028B7
:1049F00008DD844206DD2B68084A184413682860E5
:104A00000133136008B070BD68E5032065E503203D
:104A100084A70D0036A90D0086A70D0070E50320C0
:104A20002DE9F04304462DED028B636A83B01046F6
:104A3000002B38D003F0C0FE1D4901AA054604F042
:104A400061FD68B303F036FE194901AA002057EC56
:104A5000106B04F057FD18B303F02CFE144901AAA3
:104A6000002059EC108B04F04DFDC8B103F022FE7C
:104A700051EC100B03F0AAFD494608EE900A40469F
:104A800003F0A4FD394608EE100A304603F09EFDFF
:104A9000636A00EE100AB0EE681AF0EE480A984712
:104AA000284600F01DFE03B0BDEC028BBDE8F0838C
:104AB00084A70D00022A38B5044607D0032A11D076
:104AC000012A01D10B682360002038BD0C200D683D
:104AD000FFF7E1FA03460028F5D095E8070083E8E0
:104AE0000700F0E700680028EED00C2103F0EEF894
:104AF000EAE770B4036809685C689D681B6812681F
:104B0000661005EB6400E40744BFAC59E35870BC81
:104B1000184710B58368044613B10322014698472D
:104B2000204610BD38B50F4B0360002542F21073CC
:104B30000446C0E901530C490C3002F010FD4FF45B
:104B4000FA53A362C4E907550849656204F12C00D1
:104B500002F005FD4FF49B724FF4CD73C4E90F23AF
:104B6000204638BD14A80D00BCA70D00CAA70D0033
:104B7000F8B5104C104F114E1149002520463D60EC
:104B800003F011FE04F10B0333600E485B2329464A
:104B9000A37200F0B9FC33685D221A707D225A704E
:104BA0009A70DD701A1D3B68326003B923700148AA
:104BB000F8BD00BF68E4032070E5032068E503202A
:104BC000CFA70D0099490D0030B585B0054602F01C
:104BD0005BFE184902F00FFC2846FFF7C9FF0446A8
:104BE00002F052FE14492246FFF7B0FA2378F3B1DF
:104BF00000F0E6FCD8B1114BE9681B788DF8003065
:104C000022463C2302A800F00FFF039C7CB163689E
:104C1000013B63605BB9236820469B689847A368A3
:104C2000013BA3601BB923682046DB68984705B0A9
:104C300030BD00BFDAA70D00EAA70D006CE5032028
:104C400010B5036A022B04460BD0032B22D0BBB94C
:104C500000F0B6FCA0B10223236200F01DFBE0616E
:104C60000EE000F019FBE369C01AA36A984207D36B
:104C70006368012B05D12046FFF7A6FF04232362BA
:104C800010BD002BFAD00323236200F005FBA368BC
:104C9000C01AE4E700F094FC70B100F0FDFAE3699B
:104CA000C01AA3689842EBD300F0F6FAE061204600
:104CB000BDE81040FFF788BF2062E1E738B5002368
:104CC00083608B6804460D462BB102229847EB683F
:104CD000E360AB68A360204638BD000030B58DB0FE
:104CE000C3684162044608A8039300F071FC089A67
:104CF000039B00924FF480711A4A1B4800F000FD9C
:104D000008A802F0E1FB00250C200695FFF7C3F987
:104D100018B1164B8460C0E90035154B0490079319
:104D200004A9144B069308A8FFF7C8FF0A9B7BB1A0
:104D30001020FFF7B0F9054650B108A9FFF7BEFFF4
:104D40000023CDE900330C4907482A4600F050FC07
:104D500008A8FFF7DEFE04A8FFF7DBFE20460DB033
:104D600030BD00BFF6A70D0068E40320214A0D0006
:104D7000F34A0D00B54A0D0027580D00014B0122E2
:104D80001A7070476CE5032038B50446C0680D46BC
:104D900008B100F0A5FCA379062B0CBF042003206A
:104DA00010FB05F080B2A08000F092FCE06028B11A
:104DB000A288002103F0A9FC658038BDA080608036
:104DC000FBE710B504460121C07902F0EDFEE07961
:104DD000002102F0FAFE0123237010BD37B50378DD
:104DE00005460C461BB1C079002102F0DDFE2B7890
:104DF000EC715BB1A0B20121019002F0D5FE0198E7
:104E0000002103B0BDE8304002F0DFBE03B030BD8A
:104E100070B50025044616468371C0E90355057038
:104E20000572FFF7B1FF20463146FFF7D7FF204656
:104E300070BD0000C368002B00F08D812DE9F04F9C
:104E40008379023BDBB2042B9CBFC84A52F8234053
:104E500087B0054688BF322400F016FA2B69C01AC5
:104E6000A042F9D3C24AAB8807CA06AC04E90700DE
:104E7000039CD4F800251AB9D4F86025002A7CDBFD
:104E8000049CD4F8002522B9D4F86025002AC0F289
:104E90005281059CD4F80025002A00F03781B54BDB
:104EA000B5481C68EB79C1681A0104EB0316A75CCE
:104EB0007378B24C41F08071C160226803F01F0327
:104EC00043EA471301273A432260A988D5F80C80AA
:104ED000D4F804909F40002944D04FF0000E724651
:104EE0004FF0A04118F801CB0820802663689B1A78
:104EF000462BFBD96268D1F808351CEA060F43EA55
:104F00000703C1F808352FD063689B1A282BFBD9FB
:104F1000D1F80C35013843EA07034FEA5606C1F8C9
:104F20000C35E3D1AB880EF1010E1FFA8EFE7345EE
:104F3000D8D84FF4307101FB03F163689B1A462BFC
:104F4000FBD96368A3EB09098945C0F0D9804FF408
:104F5000967000F091F9A988D5F80C80D4F80490E7
:104F60000029BAD10A46E8E763689B1A112BCFD80B
:104F700063689B1A112BF7D9CAE7D4F86425002A75
:104F8000BFF67EAFD4F86825002ABFF679AFD4F813
:104F90006C25002ABFF674AF1B010433184600933A
:104FA00000F096FB00283FF47AAFAB88002B00F0AE
:104FB000DA80EA68013B12FA83FE02F1FF3C00232B
:104FC00048F2060248F20D011CF8017F17F0800F2D
:104FD0000CBF9046884620F8138003F1010817F0B3
:104FE000400F1FFA88F80CBF93468B4620F818B084
:104FF00003F1020817F0200F1FFA88F80CBF924641
:105000008A4620F818A003F1030817F0100F1FFAC2
:1050100088F80CBF9146894620F8189003F10409DE
:105020001FFA89F917F0080F03F105080CBF924623
:105030008A461FFA88F817F0040F20F819A00CBF51
:105040009146894620F8189003F1060817F0020FE0
:105050001FFA88F803F108060CBF9146894607330A
:10506000FF0720F8189001969BB275D5E64520F809
:105070001310BDF80430A7D1591C023389B29BB27A
:1050800049005B00009A4FF40047475256083949DF
:10509000C75200224FF0140CC4F80425C4F80C25A4
:1050A000C4F808C5C4F81425C4F81025C4F82005B0
:1050B000C4F82465C4F82825C4F82C25EB790E68BB
:1050C00006EB031719017B78715C03F01F0343EAB9
:1050D00041130121C4F86035C4F80015C4F810214B
:1050E000A160D4F81031002BFBD000234FF0FF3229
:1050F000C4F81031C4F80035C4F8602500F0F0FAA7
:1051000000F0C2F8286107B0BDE8F08FD4F8602540
:10511000002ABFF6C4AED4F86425002ABFF6BFAE9D
:10512000D4F86825002ABFF6BAAED4F86C25002A58
:10513000BFF6B5AE30E7D4F86425002ABFF6A9AEB5
:10514000D4F86825002ABFF6A4AED4F86C25002A4E
:10515000BFF69FAE20E77047E64520F81320B3B2B4
:105160007FF432AF88E7042302218BE728A80D00E3
:105170001CA80D0074E50320F0ED00E0001000E035
:1051800043888B42F0B526D9057AC2F30743C2F3B0
:105190000724D6B23DB16B436C436E43C3F3072380
:1051A000C4F30724360A90F806C0C768BCF1060F9E
:1051B0000CBF042503256943ACF1020C7D18BCF13A
:1051C000060F1DD8DFE80CF0041C08040F040400CF
:1051D0007C546B70AE70F0BDFE2B28BFFE237B5459
:1051E0006E70AC70F7E77B546C70AE70037A120E81
:1051F00013B9D2B2EA70EEE75A43C2F30722F9E7D5
:105200007B546C70AE70E6E742EA012141EA00404F
:1052100040EA03607047000008B500F045F8014B14
:10522000186008BD74E5032008B5024B1B685B6C71
:10523000019308BD4802030008B5024B1B689B6C34
:10524000019308BD4802030008B5024B1B68DB6CE4
:10525000019308BD4802030008B5024B1B685B6D53
:10526000019308BD4802030008B5024B1B685B6848
:10527000019308BD1802030008B5024B1B68DB68E8
:10528000019308BD1802030008B5024B1B681B6997
:10529000019308BD1802030008B5024B1B685B6947
:1052A000019308BD1802030008B5024B1B681B6878
:1052B000019308BD2C02030008B5024B1B685B6814
:1052C000019308BD2C02030008B5024B1B689B68C4
:1052D000019308BD2C02030008B5024B1B68DB6874
:1052E000019308BD2C02030008B5024B1B681B6923
:1052F000019308BD2C02030008B5024B1B685B69D3
:10530000019308BD2C02030008B5024B1B681B6B00
:10531000019308BD2C02030008B5024B1B681B6AF1
:10532000019308BD2802030008B5024B1B685B6AA5
:10533000019308BD2802030008B5024B1B689B6A55
:10534000019308BD2802030008B5024B1B68DB6A05
:10535000019308BD2802030008B5024B1B681B6BB4
:10536000019308BD2802030008B5024B1B685B6B64
:10537000019308BD2802030008B5024B1B681B6C93
:10538000019308BD2802030008B5024B1B685B6946
:10539000019308BD6402030008B5024B1B689B68BB
:1053A000019308BD6802030008B5024B1B68DB6867
:1053B000019308BD6802030008B5024B1B681B6817
:1053C000019308BD2402030008B5024B1B68DB698A
:1053D000019308BD3002030008B5024B1B681B6A2D
:1053E000019308BD3002030008B5024B1B681B681F
:1053F000019308BD3C02030008B5024B1B689B6883
:10540000019308BD3C02030008B5024B1B68DB6832
:10541000019308BD3C02030008B5024B1B681B69E1
:10542000019308BD3C02030008B5024B1B685B6991
:10543000019308BD3C02030008B5024B1B689B6941
:10544000019308BD3C02030008B5024B1B68DB69F1
:10545000019308BD3C02030008B5024B1B681B6AA0
:10546000019308BD3C02030008B5024B1B689B6A10
:10547000019308BD3C02030008B5024B1B68DB6AC0
:10548000019308BD3C02030008B5024B1B681B6872
:10549000019308BD4C02030008B5024B1B685B6812
:1054A000019308BD4C02030008B5024B1B689B68C2
:1054B000019308BD4C02030008B5024B1B681B6931
:1054C000019308BD4C02030008B5024B1B685B69E1
:1054D000019308BD4C02030008B5024B1B689B6991
:1054E000019308BD4C02030008B5024B1B68DB6941
:1054F000019308BD4C02030008B5024B1B681B6AF0
:10550000019308BD4C02030008B5024B1B68DB6D1C
:10551000019308BD7402030008B5024B1B685B6B66
:10552000019308BD6002030008B5024B1B68DB6EE7
:10553000019308BD6002030008B5024B1B681B6F96
:10554000019308BD6002030008B5024B1B685B684D
:10555000019308BD2002030008B5024B1B685B697C
:10556000019308BD2002030008B5024B1B68DB6AEB
:10557000019308BD2002030008B5024B1B68DB6CD9
:10558000019308BD2002030008B5024B1B685B6D48
:10559000019308BD2002030008B5034B1B68D3F834
:1055A0008830019308BD00002002030008B5034BBA
:1055B0001B68D3F89430019308BD0000200203005B
:1055C00008B5024B1B685B69019308BD44020300E8
:1055D00008B5024B1B68DB69019308BD4402030058
:1055E00008B5024B1B681B6A019308BD4402030007
:1055F00008B5024B1B685B6A019308BD44020300B7
:1056000008B5024B1B68DB6B019308BD4402030025
:1056100008B5024B1B685B68019308BD400203009C
:1056200008B5024B1B689B68019308BD400203004C
:1056300008B5024B1B68DB68019308BD40020300FC
:1056400008B5024B1B681B69019308BD40020300AB
:1056500008B5024B1B685B69019308BD400203005B
:1056600008B5024B1B689B69019308BD400203000B
:1056700008B5024B1B68DB69019308BD40020300BB
:1056800008B5024B1B681B6A019308BD400203006A
:1056900008B5024B1B681B6B019308BD4002030059
:1056A00008B5024B1B685B6B019308BD4002030009
:1056B00008B5024B1B681B6C019308BD4002030038
:1056C00008B5024B1B685B6C019308BD40020300E8
:1056D00008B5024B1B681B68019308BD1C02030040
:1056E00008B5024B1B685B68019308BD1C020300F0
:1056F00008B5024B1B689B68019308BD1C020300A0
:1057000008B5024B1B68DB69019308BD1C0203004E
:1057100008B5024B1B685B6A019308BD1C020300BD
:1057200008B5024B1B68DB6A019308BD1C0203002D
:1057300008B5024B1B681B6B019308BD1C020300DC
:1057400008B5024B1B685B6C019308BD1C0203008B
:105750000021FFF701BF10B5836804460BB902F0C2
:10576000BBFAC3689847A3681BB1032221462046B1
:10577000984720461021BDE8104002F0A7BA0B68F8
:10578000036013B15A6801325A607047024800231F
:105790000360FFF749BD00BF78E503207047002094
:1057A000704710B51021044602F090FA204610BD53
:1057B00008B5FFF7F6FF08BD30B500224FF69C7420
:1057C000026084808D888C800C68858004600A600B
:1057D00030BD10B504460068FFF782FF204610BDBB
:1057E00038B5C468F4B12378022B03D104F10C005E
:1057F000FFF7EFFF656835B12846FFF78AF91021FA
:10580000284602F063FAA56835B12846FFF781F90A
:105810001021284602F05AFA20461421BDE83840EB
:1058200002F054BA38BD07B5CDE9001282680AB952
:1058300002F052FAC36801AA6946984703B05DF8BE
:1058400004FB73B50E46044656F8043B00930D4620
:1058500001A83146FFF793FF019A009B6260236025
:1058600001A8002301930093FEF7E8FD3046FEF700
:10587000E5FD2846082102F029FA204602B070BD55
:1058800013B50B460246D0E900016C4684E80300DC
:1058900093E8030082E8030094E8030083E8030030
:1058A00002B010BD826810B50AB902F015FABDE861
:1058B0001040C368184708B5006800F11001FFF7F1
:1058C000F1FF08BD826810B50AB902F005FABDE81B
:1058D0001040C368184708B5006800F11001FFF7D1
:1058E000F1FF08BD38B500230446036010200D46C3
:1058F000FEF7D1FB28B10123C0E90133024B03605D
:10590000C5602060204638BD44A80D0038B500238E
:1059100083608B6804460D462BB102229847EB68E2
:10592000E360AB68A360204638BD0000F0B589B0E5
:1059300004686846FFF740FF4FF00203D4E84F2F9A
:10594000002A03D1C4E8413F0029F7D125D104F151
:105950000C0569462846FFF72FFFBFF35B8F012335
:105960006370002004F10803BFF35B8F53E8006FFE
:1059700043E80002002AF9D1BFF35B8F6EB1FFF755
:10598000FBFD78B129463046FFF78CFF3046FFF724
:10599000C0F81021304602F099F96846FFF719FF68
:1059A00009B0F0BD314602A8FFF7B0FFE068B4F9D6
:1059B000105008B102F000FF06901020ADF81C5006
:1059C000FEF769FB0546E8B1002787601820FEF75F
:1059D00062FB044688B10146876002A8FFF750FFCA
:1059E000049BA268A360059B049206A9E268E36099
:1059F00004F110000592FFF7DFFE084BEB60084B47
:105A00002C60AB6006A8FFF7E4FE02A8FFF781F860
:105A1000002229460348FFF7B7FDB7E7B7580D0046
:105A20004D5B0D0057570D002DE9F0478AB0054634
:105A30009DF848900C4617469846FFF7C1FD07AE03
:105A4000824638BB4FF62E73059005A93046ADF857
:105A50001830FFF7B1FE1420FEF71DFB044648B1D5
:105A6000022303700123C0E901AA437031460C30C0
:105A7000FFF7A2FE2846214640F8044BFFF732FF0D
:105A80003046FFF7A6FE05A8FFF7A3FE28460AB09A
:105A9000BDE8F0870C234FF0000A1420CDE908AAD6
:105AA0000793FEF7F8FA014628B1C0E901AA80F889
:105AB00000A080F801A004A80391FFF713FF224B78
:105AC00008930820FEF7E7FA824628B1039B40F8C6
:105AD000043B04A9FFF753FE00965FFA89F34246A0
:105AE00039462046CDF824A0FFF77AFDB8B9039BCC
:105AF0005B7803F0FF0293B94FF69C7305A903A8E6
:105B00000592ADF81830FFF711FF05A8FFF761FE09
:105B100005A80999FFF795FE06A8FEF78FFC039BE1
:105B2000059304A906A8FFF72AFE059B069A2B6099
:105B30006A60002306A806930593FEF77FFC04A87D
:105B4000FEF77CFCA2E700BF115C0D00022AF8B54D
:105B5000054607D0032A18D0012A01D10B6803603B
:105B60000020F8BD18200E68FEF795FA044650B1E3
:105B70003146FFF7CBFE3069B6F9147008B102F078
:105B80001BFE2061A7822C60EAE70468002CE7D0A6
:105B900004F11000FFF71DFE2046FEF7BAFF1821A2
:105BA000204602F093F8DBE738B5002383608B686A
:105BB00004460D462BB102229847EB68E360AB68C0
:105BC000A360204638BD022A70B5044607D0032AD8
:105BD00012D0012A01D10B680360002070BD14208F
:105BE0000E68FEF758FA054620B13146FFF7DCFF94
:105BF000337C2B742560F0E70468002CEDD0204640
:105C0000FEF787FF1421204602F060F8E5E7000068
:105C1000F0B589B004460D4601A81146FFF711FE04
:105C2000A4B124B21DB1284602F0C6FD054601A864
:105C300003A90395ADF81040FFF778FE03A8FFF71E
:105C4000C8FD02A8FEF7FAFB09B0F0BD019D0123D3
:105C5000D5E84F2F002A03D1C5E8413F0029F7D1ED
:105C6000EFD12B73BFF35B8F6B702B1DBFF35B8F7B
:105C700053E8006F43E80042002AF9D1BFF35B8F7D
:105C8000002EDED02046FFF777FC074660B105F115
:105C90000C013046FFF716FE3046FEF73AFF1021A2
:105CA000304602F013F8CCE7314603A8FFF77CFF3B
:105CB0002B7B8DF81C301020FEF7EDF90546D0B196
:105CC00087601420FEF7E7F9044678B18760014643
:105CD00003A8FFF7D5FD059BA268A360069B05926C
:105CE000E268E3609DF81C3006922374064BEB607B
:105CF000064B2C60AB6003A8FEF70BFF0022294681
:105D00000348FFF741FCC7E7D7580D00C75B0D00FC
:105D100057570D00002240681146FFF7B1BC002222
:105D200040681146FFF7BCBC40680022FFF7B0BCDA
:105D30004068002281F00101FFF79ABC002340680F
:105D40001A461946FFF78CBC002340681A461946CC
:105D5000FFF77EBC002240681146FFF771BC0022AD
:105D600040681146FFF75CBC406800220221FFF743
:105D70005FBC002340681A46FFF74ABC024B03226F
:105D80005A60024A1A6070477CE5032060A80D0043
:105D90007047F8B5064615460C468F18BC4206D02B
:105DA000336814F8011B9B6830469847F6E728468D
:105DB000F8BD007C0022FFF7AFBA007C0021FFF79E
:105DC000B3BA007C0021FFF7B7BA007C0021FFF7CF
:105DD000BBBA007C0021FFF7BFBA10B514210446FE
:105DE00001F074FF204610BD10B54FF47A730446DD
:105DF00008460021C4E90113034B236020741146B7
:105E0000FFF7BAFA204610BD9CA80D00704710B5E8
:105E10001821044601F05AFF204610BDF0B5037D5D
:105E2000062B8DB00E4600F104074FF0000412D08F
:105E300000F1080515F8011D0A22304601F0E5FAC7
:105E4000AF42044419D0002CF4D02E21304601F08A
:105E5000C3FA0444EEE72F236A4639460A208DF838
:105E60000040FFF791FA684602F0C3FC336802462F
:105E7000DB68694630469847044620460DB0F0BDC1
:105E800010B5054B0446112240F8043B002102F0F6
:105E90003CFC204610BD00BFC4A80D000346074AC5
:105EA00010B543F8042B01F1100251F8044B43F8EC
:105EB000044B9142F9D10A781A7010BDC4A80D00A4
:105EC00010B59DF8084044EA032343EA024242EA3F
:105ED000016104234160037510BD13B5CB780093B5
:105EE0008B784A780978FFF7EBFF02B010BD00F11C
:105EF0001003012213F8101C0129184608D153F889
:105F0000041C02EB4102013A03F11003F2D1704785
:105F1000022904BF53F8041C5218F4E70EB4F0B57C
:105F200088B000AF07F13405102155F8042B7A60D2
:105F300004462B467818FD60FFF7EAFB0F287A68C5
:105F40001AD900F1080323F007036E46ADEB030DE9
:105F5000411C2B466846FD60FFF7DAFB021E04DD9C
:105F6000236869469B6820469847B5462037BD465A
:105F7000BDE8F04003B070470028F7D02368024620
:105F80009B6807F1100120469847EFE710B50368BA
:105F900004469B689847A368013BA3602BB923681C
:105FA0002046DB68BDE81040184710BD07B5036800
:105FB0008DF807109B6801220DF10701984703B087
:105FC0005DF804FB38B50B6803604D6843689D427B
:105FD00004460CD015B16B6801336B60606828B162
:105FE0004368013B43600BB9FFF7D0FF6560204673
:105FF00038BD0B461146002210B5C0E90022044608
:1060000083600BB9204610BDFFF7DCFFFAE7836819
:10601000EBB11A78032A1AD8DFE802F00417021B42
:106020000520704702685B685268D05C2D2812D04A
:10603000A0F13003092B0ED974280ED066280CD09D
:10604000A0F16E0358425841704706207047002067
:10605000704704207047032070470220704710B536
:106060000446FFF7D4FF02280ED0C31EDBB2012B7B
:1060700014D82268A36850685B68BDE810400A2203
:106080000021184403F0BCBA2268A36852685B6818
:10609000D05CA0F174035842584110BD0020FCE7C9
:1060A00038B50023C0E9003304460E48C4E90203B2
:1060B000A9B10B78032B06D08BB9136858684B68CD
:1060C000C35C6E2B07D013684D6858688B682844F2
:1060D0005B1BA060E36011462046FFF773FF20467C
:1060E00038BD00BF36A90D0038B500250B46C0E904
:1060F0000055C0E90255C0E90455044611464BB1AC
:106100001A78012A06D103F11002DB68826043612C
:10611000FFF758FF204638BD10B54369044663B108
:106120008068E060013B1030A0602061636113B1C2
:10613000FFF7DDFEA060012000E0184610BD10B59D
:106140007D210446FFF732FF01232371204610BD55
:1061500008B50379012B02D0022B04D008BD2C21F5
:10616000FFF724FFFAE73A21FAE710B50446FFF7F4
:10617000EFFF20467B21FFF719FF00232371204604
:1061800010BD000013B504460191FFF7E1FF23683D
:10619000019ADB6803492046984701232046237172
:1061A00002B010BDD0A80D0013B504460191FFF751
:1061B000CFFF2368019ADB680349204698470123F3
:1061C0002046237102B010BDD3A80D002DE9F04187
:1061D0000D4617462221DFF8A08004462F44FFF722
:1061E000E5FE2946BD422A4638D015F8016B222E1D
:1061F00003D05C2E01D01F2EF4D82368521A9B685E
:10620000204698475C212046FFF7D0FE0D2E0AD885
:10621000072E1CD9A6F10803052B18D8DFE803F0D8
:106220000D0F11171315222E01D05C2E0FD1314600
:106230002046FFF7BBFE2946D4E76221F8E7742128
:10624000F6E76E21F4E76621F2E77221F0E72368B2
:106250003246DB68414620469847ECE78D4204D041
:1062600023686A1A9B682046984722212046FFF738
:106270009DFEBDE8F08100BFD6A80D0013B5044611
:10628000CDE90021FFF764FF2046DDE90021FFF79B
:106290009DFF02232046237102B010BD13B50446B2
:1062A000CDE90021FFF754FF2046DDE90021FFF78B
:1062B0008DFF01232046237102B010BD8068036862
:1062C000DB6818477047084611B10B685B681847D0
:1062D0007047704770477047704738B504460D46A1
:1062E00000682E2102F04BFA2368C31A2B6023B1F9
:1062F000037803B1013023682060184638BD10B51B
:106300000C21044601F0E2FC204610BD10B504212A
:10631000044601F0DBFC204610BD10B50421044604
:1063200001F0D4FC204610BD08B502F032FAB0FAF4
:1063300080F0400908BD704710B50C4601F0A4FA82
:10634000844210D001F018FA844205D101F014FA09
:10635000BDE8104001F00DBA2CB1236820465B68FF
:10636000BDE81040184710BD13B50446084601911A
:1063700002F03FFA01990246204602B0BDE8104003
:10638000FFF78CBF13B504460846019102F031FABD
:1063900023680199DB680246204602B0BDE8104040
:1063A000184707B503688DF80710DB6801220DF167
:1063B0000701984703B05DF804FB0EB403B503ABC7
:1063C000002153F8042B006A019301F03CF802B05D
:1063D0005DF804EB03B070472DE9F74FD0E9009565
:1063E0004FF0140808FB05F50093AB10184D174645
:1063F0005D434C46002D23DD6E1008FB06F004EBD8
:10640000000A3A46BAF804B0205801915F4528BF07
:106410005A4602F0F6F90199012378B95F4503D194
:10642000009A13703546E5E78CBF01200020002854
:10643000F8D0AE1B0AF11404013EF3E7C00FF6E7F3
:10644000A4EB09040248A410604303B0BDE8F08F38
:10645000CDCCCCCC7FB50369067E01910BB301B3E3
:10646000002500F10C04039503A901A8FFF735FFEF
:106470000146B0B10DF10B03039A8DF80B50204685
:10648000FFF7AAFF9DF80B305BB12468142303FBD0
:10649000004000F10804B0F90630002BA8BFDEB2BE
:1064A000E2E7304604B070BD10B5094C2378BFF365
:1064B0005B8FDB0709D42046FDF7FEFD28B120469F
:1064C000FDF7FFFD034802F0EFF8034810BD00BFE1
:1064D00088E50320D3620D00E4E1032010B5094CE8
:1064E0002378BFF35B8FDB0709D42046FDF7E4FD7B
:1064F00028B12046FDF7E5FD034802F0D5F8034832
:1065000010BD00BF8CE5032037630D00E8E10320D8
:1065100038B500250446C0E90055C0E9045585603A
:10652000856140F8245FFEF77FFEFFF7BDFFE06165
:10653000FFF7D4FF25732062204638BD10B50A4C02
:106540002378BFF35B8FDB070CD42046FDF7B4FD47
:1065500040B10648FFF7DCFF2046FDF7B2FD0448D6
:1065600002F0A2F8014810BD84E5032094E5032061
:106570001D6A0D00024A034903480023FEF7DCBFF1
:10658000A5680D0031680D00B1670D0000231A46A3
:1065900019461846FEF7D0BF37B50D6951F8043BD0
:1065A0000093044601A8FFF7EAF86A462946204608
:1065B000FFF71FFD01A8FDF741FF204603B030BDE6
:1065C00037B58D6851F8043B0093044601A8FFF7E6
:1065D000D6F86A4629462046FFF786FD01A8FDF752
:1065E0002DFF204603B030BD37B5CD6851F8043BD0
:1065F0000093044601A8FFF7C2F86A4629462046E0
:10660000FFF74EFD01A8FDF719FF204603B030BD8E
:1066100070B58AB00D46014604A8FFF7D1FF144EAD
:1066200004A8FFF779FDE8B104A96846FFF7DCFF8D
:1066300002983146FFF778FE044610B12C1E18BFB1
:10664000012401A8FDF7FAFE002CE9D004A9684650
:10665000FFF7A2FF6846FFF702FD286001A8FDF7DB
:10666000EDFEDDE705A8FDF7E9FE0AB070BD00BF4D
:10667000DCA80D0037B50C4620461249154602F03D
:1066800088F848B901F000F94FF4165101F0ECF820
:1066900001F0FAF803B030BD0B49204602F079F85A
:1066A00070B94FF4165301A928460193FFF7B0FFC4
:1066B00001F062F8019901F059F801F05DF8E9E79D
:1066C0000020E7E7E1A80D00E8A80D0070B5D0E9CB
:1066D00000531426044606FB0356AE4205D005F1CE
:1066E0000800FFF7F3FF1435F7E72068FEF7F8FF1F
:1066F000204670BD70B5D0E90053044605EB031683
:10670000AE4204D0284600F0DFFE1035F8E72068DE
:10671000FEF7E6FF204670BD10B504460C30FFF7CB
:10672000D5FF2046FFF7E6FF204610BD10B5044B0D
:10673000044640F8043BFFF7EFFF204610BD00BFC2
:106740005CA70D0010B50446FFF7F0FF204624219A
:1067500001F0BCFA204610BD10B5034B036004469F
:10676000FFF7E4FF204610BD88A90D0010B50446D0
:10677000FFF7F2FF2046242101F0A8FA204610BDC1
:106780000022C0E9002210B582600C6804604C68E9
:1067900044608C680A604A6084608A6010BD10B5ED
:1067A000036804461868FEF757FD204610BD000038
:1067B0002DE9F04F87B0804603931C4B5B68C3F311
:1067C0000803894616466BB9FFF7B8FE044600F188
:1067D0002403406A0593FEF737FD237B2BB105A800
:1067E000FFF7DDFF07B0BDE8F08F01232373D4E985
:1067F00000535FFA89F905EB830AAA4512D055F8D0
:10680000047B3146381DFFF725FE8145F5D33B68F3
:10681000039A0092D3F808B04A46334641463846B8
:10682000D847EAE700232373D9E700BF00ED00E073
:106830002DE9F74F9B461A4B5B68C3F3080380466C
:10684000894616466BB9FFF779FE044600F124032A
:10685000406A0193FEF7F8FC237B2BB101A8FFF7F8
:106860009EFF03B0BDE8F08F01232373D4E90053EA
:10687000F6B205EB830A55450ED055F8047B594610
:10688000381DFFF7E7FD8642F5D33B684A46DB68D3
:10689000414638469847EEE700232373DEE700BF02
:1068A00000ED00E02DE9F341164B5B68C3F30803EC
:1068B00005460F461BBBFFF741FE00F124030446CB
:1068C000406A0193FEF7C0FCD4E90063462406EB5E
:1068D0008308B04509D101A8FFF761FFA542B4BF05
:1068E0000020012002B0BDE8F08156F8040B3946C3
:1068F0000430FFF7AFFD8442A8BF0446E9E700205B
:10690000F0E700BF00ED00E070B50446D0E90002FA
:106910000B4600EB8202824207D001461D6851F807
:10692000046BAE4203D00846F5E7002070BD521A52
:1069300001F0D1FE6368013B63600120F6E71FB5FB
:1069400000F124030446406A01910393FEF77CFCA6
:1069500001A92046FFF7D8FF18B163680BB9FFF70C
:1069600015FE03A8FFF71BFF04B010BD70B5D0E9FA
:1069700004561823044603FB0656AE4215D005F113
:1069800010012046FFF7C0FF63680BB9FFF7FEFD5B
:10699000E06929690368DB689847696919B1206A69
:1069A0000368DB6898471835E7E7D4E904531826ED
:1069B00006FB0356AE4204D0284600F085FD18358C
:1069C000F8E70023636170BD73B50446FFF7DEFD91
:1069D00004F12403606A0193FEF736FC2046FFF7BA
:1069E000C5FF01A8FFF7DBFE606A08B1FEF724FCD3
:1069F000D4E90453182606FB0356AE4204D02846B9
:106A000000F062FD1835F8E72069FEF769FE20689E
:106A1000FEF766FE204602B070BD00000148FFF799
:106A2000D3BF00BF94E503208842F8B506460C4664
:106A3000154627D9904226D2A2F114056C1AA1F16D
:106A4000140704440026AF423DD0A4B12B68236054
:106A5000AB88A380B5F90630E380C4E902662661FD
:106A6000AB68A360AE60E368EA68E260EB6023694C
:106A70002A6922612B6105F10800FFF727FE143D0A
:106A8000143CE0E71FD00027AC421CD0A6B123681D
:106A90003360A388B380B4F90630F380C6E9027787
:106AA0003761A368B360A760F368E268F260E360EF
:106AB000336922693261236104F10800FFF706FEA1
:106AC00014341436E0E7F8BDF8B5D0E901539D421F
:106AD00004460E4617460DDB0135002D006804DD27
:106AE000A900FEF705FE18B9F8BDFEF7F9FD002074
:106AF0002060A5602568626805EB86019200A2EB24
:106B00008602081D01F0E7FD45F826706368013331
:106B100063600120E8E737B500F124030446406ACA
:106B200001930D46FEF790FBD4E9003103EB8100A1
:106B300083421A460BD01268AA4203F10403F7D12C
:106B400001A8FFF72CFE0025284603B030BD2A46D9
:106B50002046FFF7B9FF05460028F1D06368012BF6
:106B600001D1FFF707FD01A8FFF719FEECE7884206
:106B7000F8B504460D46164614D9904213D2A2F138
:106B80001006751AA1F110072C44B74218D01CB199
:106B90003146204600F014FD304600F095FC103ED2
:106BA000103CF2E70CD0B5420AD01CB12946204671
:106BB00000F006FD284600F087FC10351034F2E79F
:106BC000F8BD70B50E1E054611DD3001FEF780FDE3
:106BD000044658B1D5E9001201EB0212FFF7C7FFD6
:106BE0002868FEF77DFD2C60AE60012070BD00249A
:106BF000F6E72DE9F04F914697B000230391D9F8BD
:106C000004100C9346229942C0E90033C0E90233D4
:106C1000C0E90433CDE90A330446027623DCD9E91E
:106C20000057142303FB0757AF423BD029460DA85A
:106C300000F0C6FC0DA911A80B9E00F0C1FCDDE917
:106C40000B1399421BDA0A9B0B9A03EB061603EB14
:106C50000212314606F11000FFF789FFEEB90B9BD7
:106C600001330B9311E00AA8FFF7ABFF0028D6D140
:106C70000AA8FFF73FFD204617B0BDE8F08F0131AD
:106C80000AA8FFF79EFF0028DDD111A800F01CFC28
:106C90000DA800F019FC1435C6E711A9304600F024
:106CA0008FFCDCE70026CDE90D660F9637464FF0E6
:106CB000140ADDE90A239E4280F297803301D358FB
:106CC00008930BB90136F4E70AFB06F30997029320
:106CD0000DAD09A908A8FFF700FB83460028F1D0F5
:106CE0000146099A8DF81F700DF11F032846FFF722
:106CF00073FB9DF81F800190B8F1000F66D1BDF8BD
:106D00002430ADF84830CDE913884FF6FF73CDF845
:106D100044B0ADF84A30CDF85480D5E90132934201
:106D20001ADB03F1010BBBF1000F4ADD0AFB0BF08C
:106D3000FEF7CEFC0490002845D0D5E900120AFBEE
:106D40000212FFF771FE049B28680493FEF7C8FC4B
:106D5000049B2B60C5F808B0019BD5F800B06A68A9
:106D60000AFB03F30BEB030101F114000AFB02B26F
:106D700004910593FFF758FE0499A9B1059B119A58
:106D80004BF80320BDF848308B80BDF94A30CB80EA
:106D9000C1E902770F61139B8B60149B1397CB6043
:106DA000159B14970B6115976B6801336B6013A8E3
:106DB000FFF78CFCB8F1000F08D00DA8FFF786FC98
:106DC00056E74346C0E74FF00108F0E7019B2D6806
:106DD0000AFB0355089B1B782BB9D9F80030029A9F
:106DE00013441B7CEB80083573E7216822606268DE
:106DF0006360A3680B920C9A0C93E368A2600D9AEF
:106E00000D932369E2600E9A0E93636922610F9AD3
:106E10000F93039B0A9162612376CEE77FB5054607
:106E2000094B45F8043B04460E4601A81146FDF700
:106E30000CFD01AA31462846FFF7DBFE01A8FDF74D
:106E4000C3FC204604B070BD5CA70D00F0B50F4632
:106E500087B026490C9C384616461D4601F099FC21
:106E600000BBE4B129466846FFF78AFC204924208C
:106E700000F02EFF054670B1694603A8FDF7E5FC5A
:106E800003AA31462846FFF7C9FF03A8FDF79CFC7B
:106E9000184B2C622B606846FDF796FC2C4620466A
:106EA00007B0F0BD1449384601F073FCE0B9002C7E
:106EB000F5D029466846FFF763FC0D49242000F011
:106EC00007FF05460028E6D0694603A8FDF7BDFC8C
:106ED00003AA31462846FFF7A1FF03A8FDF774FC7B
:106EE000064B2B602C62D6E70024D8E7F0A80D00F3
:106EF000BCAA0D0088A90D00F4A80D0070A90D0012
:106F0000014B024A1A60704790E5032005A90D0065
:106F10002DE9F047089DD0F8209004460E4617460C
:106F2000984600F0B1FC81454CD02B79190704D567
:106F30006A6954492046FFF740FAB8F1000F0DD0B6
:106F40005B212046FFF72DFA41462046FFF71AFA4B
:106F500023684D49DB680222204698472B79DA07DF
:106F600023D5D5F808802F21404601F05CFC08B1FC
:106F700000F1010841462046FFF704FA2B799B07F0
:106F800008D53A212046FFF70CFAEA683F49204627
:106F9000FFF713FA2A79236812F0040FDB6814BF95
:106FA0003B493C490222204698472B7958071DD57A
:106FB00029690B461A4613F8010B60B1202808D145
:106FC0001946F7E7344800F066F90028ADD0BDE86F
:106FD000F0872828EED12368521ADB6820469847AC
:106FE00023682E49DB680422204698470021384652
:106FF000FEF79AFA01462046FFF7C4F923682549AF
:10700000DB680222204698471EB131462046FFF732
:10701000B9F92B7913F0300F2CD023682049DB68A5
:107020000222204698472B79D9060AD523681D49A4
:10703000DB68072220469847AA691B492046FFF7CC
:10704000BCF92B799A0611D5DB0605D523681049C2
:10705000DB6802222046984723681449DB682046F3
:107060000A229847E9692046FFF78CF95D212046FE
:10707000FFF797F923680E49DB6820460222BDE836
:10708000F047184709A90D0010A90D00D0A80D0060
:1070900013A90D0018A90D00BCE5032016A90D00C9
:1070A0001BA90D001EA90D0026A90D0029A90D0080
:1070B00034A90D002DE9F04385B0D0F820900C9C48
:1070C00005460F4690461E4600F0DEFB814505D181
:1070D000494800F0E0F8002840F08A802B6A474ACF
:1070E00001924FF0000901A803938DF80890FFF773
:1070F0003CF849464046FEF717FA414980460122CE
:1071000001A8FFF7BBF84146FFF72EF93FB13D4913
:10711000012201A8FFF7B2F83946FFF725F93EB181
:107120003949012201A8FFF7A9F83146FFF71CF9F8
:107130002379DF070ED5A6682F21304601F073FBB7
:1071400000B1461C3149012201A8FFF797F83146EA
:10715000FFF70AF923799E0707D52D49022201A8D6
:10716000FFF78CF8E168FFF70DF82379580714D57D
:10717000266933461F4613F8012B2AB1202A01D174
:107180001E46F7E7282AF5D12249022201A8FFF777
:1071900075F8BA1B3146FFF781F82379190707D52F
:1071A0001D49012201A8FFF769F86169FEF7FCFF9C
:1071B0002379DA0608D5042218490DEB0200FFF7FF
:1071C0005DF8A169FEF7DEFF23799B0607D5144918
:1071D000062201A8FFF752F8E169FFF7C5F801A8F8
:1071E000FEF7ADFF286A0F4903680222DB68984763
:1071F00005B0BDE8F08300BFBCE5032058A90D0031
:10720000E6A80D0037A90D0039A90D00EAA60D006A
:107210003BA90D003EA90D0009A70D0041A90D00D5
:1072200046A90D0034A90D00002340681A46FEF758
:10723000EFB9406800220221FEF7FAB90022406847
:107240001146FEF7EDB9002240681146FEF7F8B985
:10725000002340681A461946FEF7FAB90023406831
:107260001A461946FEF7FCB940680021FEF720BA1D
:1072700040680021FEF724BA4068002281F0010135
:10728000FEF7F6B940680022FEF702BA0022406815
:107290001146FEF705BA002240681146FEF7F0B924
:1072A0002DE9F043002495B016460D460746FEF73B
:1072B000E7FD214618220EA8009401F026FA40238B
:1072C000CDE90C3421466B460CAA3046FEF76CF82B
:1072D0000446002846D1024601216868FEF7B0F94D
:1072E0000221804622466868FEF7AAF9009E814680
:1072F0002146002E36D0002934D17368022B03D0EA
:107300000A2B0BD0F669F4E7B8F1000F04D07169CD
:1073100038460431FEF7E1FD4146F3E7B9F1000FCD
:1073200001D14946EEE77469102201A801F0EDF998
:1073300006238DF8143001AD04F1080318341868E1
:1073400059682A4603C20833A3421546F7D101A95A
:1073500006A807ADFEF7A2FD0FCD3C1D0FC42B689C
:107360002370DEE70098FEF717F8384615B0BDE841
:10737000F0830000024B034A1A6000225A607047F3
:10738000BCE50320D0A90D00F8B506460D468F18C0
:107390000024BD420CD0336815F8011B9B683046B1
:1073A0009847031E01DB1C44F3E7002C08BF1C4672
:1073B0002046F8BD13B50446084659B1019101F0C5
:1073C00018FA23680199DB680246204602B0BDE83E
:1073D0001040184702B010BD03689B68184738B5C5
:1073E0000D210546FFF7F8FF0A2104462846FFF75E
:1073F000F3FF204438BD38B50546FFF7DBFF0446F0
:107400002846FFF7ECFF204438BD30B58BB0002391
:107410008DF82430012A98BF0A2209AC0D46B1FB31
:10742000F2F101FB125303F0FF03092B94BF303339
:107430003733DBB2AA4204F8013DEFD92146FFF70A
:10744000B9FF0BB030BD2DE9F04186B000AF054665
:107450000E46381D142114463B60FEF759F91328D7
:107460000ED8391D2846FFF7A5FF04461EB1284651
:10747000FFF7B5FF044420461837BD46BDE8F0814C
:1074800000F1080323F00703E846ADEB030D2246A5
:10749000411C3B686846FEF73BF969462846FFF702
:1074A00089FF0446C546E1E7014B00229A60704718
:1074B000C4E5032010B5044608462170FDF784FF9B
:1074C00000236360204610BD10B504460068FEF737
:1074D00007F9204610BD10B50446006808B1FEF754
:1074E000FFF80023C4E90133236010BD38B504461A
:1074F0000D4600680131FEF7FBF810B1C4E9000544
:10750000012038BD10B50368044623B143688B429F
:1075100001D3012010BD2046FFF7E8FF0028F9D075
:10752000A368002BF5D122681370F2E737B50D463A
:10753000114601920446FFF7E5FF019A28B920465B
:10754000FFF7C9FF204603B030BDA260294620687E
:1075500001F0B3F82268A3680021D154F2E70023B8
:1075600013B5C0E9003304468360037341B1084694
:10757000019101F03EF9019902462046FFF7D6FF3E
:10758000204602B010BD38B5054600680C4668B10B
:107590006A688B689A4207D3096801F004F9A36806
:1075A000AB600023A36038BDFEF79AF823682B6018
:1075B00063686B60A368AB600023C4E90033F1E744
:1075C00010B50023C0E90033044683600373FFF75E
:1075D000DAFF204610BD884210B5044605D00B687E
:1075E0002BB18A681946FFF7A1FF204610BDFFF7AF
:1075F00072FFFAE710B500230446C0E90033836048
:107600000373FFF7E8FF204610BD13B5044659B1D8
:107610000846019101F0EDF8019902462046FFF776
:1076200085FF204602B010BDFFF755FFF9E710B502
:1076300004468AB00023C4E90033A36023730846DC
:1076400001A900F0C1F901A92046FFF7DEFF20469D
:107650000AB010BD054B02221A60054B054A9A601C
:107660000020186098809871FDF76EBFE0E5032058
:10767000D4E503200000FFFF024B1A68024B1A609A
:10768000704700BFECE10320E4E50320F8B587B2C2
:10769000044638460D46164600F048FA60B102210D
:1076A0003846FDF709FE022806D132462946204613
:1076B000BDE8F840FDF780BEF8BD704741747047E3
:1076C000704708B5007CFDF7CFFE20EAE07008BDEA
:1076D00008B5007CFDF7A0FE20EAE07008BD08B503
:1076E000007CFDF7A9FE40EAE07008BD08B5007C0B
:1076F000FDF79AFE40EAE07008BD007CFDF7A4BEED
:1077000037B5457C04462DB1207C03B0BDE8304040
:10771000FDF77ABE007C0191FDF7A6FE00280199D5
:10772000F2DC284603B030BD10B51421044600F049
:10773000CDFA204610BD000010B54FF0000C0446F5
:10774000084611464FF47A72C4E901C2044A226025
:107750000122207462741A46FDF746FE204610BDD1
:1077600028AA0D00007C0023FDF786BE0022FFF74B
:10777000F9BF007CFDF740BE13B50D4C2178BFF377
:107780005B8F11F0010110D120460191FCF794FCB0
:10779000019950B1074B084A0848FFF7CDFF204632
:1077A000FCF78FFC064800F07FFF044802B010BDD4
:1077B000E8E5032070E60320ECE50320F4E603206F
:1077C000C1760D00417470477047704708B50021BD
:1077D000007CFDF781FE40EAE07008BD08B501219C
:1077E000007CFDF779FE40EAE07008BD08B5007C3A
:1077F000FDF76AFE20EAE07008BD08B5007CFDF7E1
:107800005BFE20EAE07008BD13B50446007C0191E0
:10781000FDF75AFE0028019901DC607C20B1207C34
:10782000FDF762FE20EAE07002B010BD007CFDF7BB
:1078300063BE10B51421044600F048FA204610BD7E
:1078400010B54FF47A73044608460021C4E90113C9
:10785000044B23600123207463741146FDF714FE6A
:10786000204610BD58AA0D00007C0022FDF714BE72
:10787000007CFDF719BE10B514220446002100F06B
:1078800044FF204610BD000010B50F4C88B003A87F
:10789000FFF7F1FF2178BFF35B8F11F001010FD1EA
:1078A00020460191FCF708FC019948B103AA07485A
:1078B000FFF7C6FF2046FCF704FC054800F0F4FE85
:1078C000024808B010BD00BF08E703200CE7032002
:1078D000C9770D00002240681146FDF7B1BE0022B5
:1078E00040681146FDF7CCBE002240681146FDF706
:1078F000D7BE40680022FDF7CBBE4068002281F071
:107900000101FDF7B5BE002340681A461946FDF790
:10791000A7BE002340681A461946FDF799BE00220B
:1079200040681146FDF77CBE406800220221FDF749
:107930007FBE002340681A46FDF76ABE024B042250
:107940005A60024A1A60704720E7032088AA0D0097
:1079500010B5044600F04DFF01382318204683423D
:1079600006D90278197800F8011B03F80129F6E717
:1079700010BD70B50C46911E2229054622D820461E
:107980006DB1B5FBF2F602FB1655E9B2092D94BFB5
:1079900030315731C9B200F8011B3546F0E70246D5
:1079A00023443021934202D902F8011BFAE71A1A44
:1079B000834238BF0022002383542046FFF7C8FFCC
:1079C000204670BD0020FCE738B5031E0C46154666
:1079D0000EDAB3F1004F4FF02D0214BF5842184693
:1079E00001230A702A461944FFF7C3FF204638BD19
:1079F0000123F9E7014B1860704700BFF0E1032055
:107A000008B50B4B43B1FFF73FFF03681B6998476D
:107A1000002801DDAFF30080064B43B1FFF7ACFE59
:107A200003681B699847002801DDAFF3008008BD9B
:107A3000000000000000000008B5FFF7E1FFFDF7BF
:107A40002BFC014B186008BD3CE703200548064AA3
:107A5000064908B5121A00F030FE054B054A1A60B7
:107A600008BD00BF00F4032004F4032060AD0D0046
:107A700000F403201E1C279A07B5002300931A4622
:107A80006FF07701FDF792FD03B05DF804FB000095
:107A900007B543880A2B08D0502B0BD1094B1B6824
:107AA0004BB103B05DF804EB1847FFF7E5FF03B0F7
:107AB0005DF804FB002300931A466FF07701FDF791
:107AC00075FDF4E72CE7032010B512480021FDF7FF
:107AD00037FE114B1A68114B9A42114B0CBF012211
:107AE00000221A7001D0FFF7B1FFFDF7BDFB04467D
:107AF00000F014FE0B4B13B12046AFF300800021C1
:107B00000848FDF77DFDBDE8104007480021FDF75E
:107B100043BD00BFF5790D0000F403201E1C279A19
:107B200028E7032000000000917A0D00232813B5F8
:107B300002D9002002B010BDA0F10B03022B1AD80D
:107B4000174C2178BFF35B8F11F001010BD1204658
:107B50000191FCF7B1FA019928B11248FFF7AAFC8C
:107B60002046FCF7AEFA0F4B1878FDF735FC0028DD
:107B7000DFD10120DEE7012809D800F083F80021D9
:107B8000007CFDF7F1FB80F00100C0B2D2E70938BC
:107B90000128EED8FFF7F0FD007CFDF75DFCF2E771
:107BA00030E7032034E70320232838B504460D4688
:107BB0000AD8FF2908D0FFF7B9FF28B12946204687
:107BC000BDE83840FDF780BB38BD38B504460D46EA
:107BD000FDF782FBFF2810D0062804D84D2323FA96
:107BE00000F0C30709D42046FFF7A0FF28B12946BB
:107BF0002046BDE83840FDF777BB38BD10B50446D8
:107C0000FDF76AFB031FDBB2012B08D92046FFF703
:107C10008DFF20B12046BDE81040FDF76DBB002070
:107C200010BD0D2810B504469CBF0E34A4B22046EA
:107C3000FFF77CFF50B103212046FDF73DFB0328F1
:107C400004D12046BDE81040FDF75EBB002010BD0A
:107C50007047000038B500232025438014230446D4
:107C60000380856005610649284600F033F8044921
:107C70006060284600F02EF8E060204638BD00BF66
:107C8000BCAA0D0030B50E4D2978BFF35B8F11F003
:107C9000010487B011D12846FCF70EFA68B101A89B
:107CA000FFF7D8FF01AA21460648FEF79DF82846AF
:107CB000FCF707FA044800F0F7FC024807B030BDB3
:107CC00040E7032044E70320517C0D00FCF7E7B9AF
:107CD000FCF7E1B9FCF7E1B908B5FDF721FD0000BB
:107CE00081F0004102E000BF83F0004330B54FEA6D
:107CF00041044FEA430594EA050F08BF90EA020FDA
:107D00001FBF54EA000C55EA020C7FEA645C7FEA6C
:107D1000655C00F0E2804FEA5454D4EB5555B8BF8F
:107D20006D420CDD2C4480EA020281EA030382EA00
:107D3000000083EA010180EA020281EA0303362D92
:107D400088BF30BD11F0004F4FEA01314FF4801C65
:107D50004CEA113102D0404261EB410113F0004F77
:107D60004FEA03334CEA133302D0524263EB43032E
:107D700094EA050F00F0A780A4F10104D5F1200ECC
:107D80000DDB02FA0EFC22FA05F2801841F1000127
:107D900003FA0EF2801843FA05F359410EE0A5F1FB
:107DA00020050EF1200E012A03FA0EFC28BF4CF02C
:107DB000020C43FA05F3C01851EBE37101F00045E2
:107DC00007D54FF0000EDCF1000C7EEB00006EEBEF
:107DD0000101B1F5801F1BD3B1F5001F0CD3490879
:107DE0005FEA30004FEA3C0C04F101044FEA4452D0
:107DF00012F5800F80F09A80BCF1004F08BF5FEA57
:107E0000500C50F1000041EB045141EA050130BD36
:107E10005FEA4C0C404141EB0101013C28BFB1F548
:107E2000801FE9D291F0000F04BF01460020B1FA93
:107E300081F308BF2033A3F10B03B3F120020CDA66
:107E40000C3208DD02F1140CC2F10C0201FA0CF044
:107E500021FA02F10CE002F11402D8BFC2F1200CA9
:107E600001FA02F120FA0CFCDCBF41EA0C0190405F
:107E7000E41AA2BF01EB0451294330BD6FEA0404A8
:107E80001F3C1CDA0C340EDC04F11404C4F1200293
:107E900020FA04F001FA02F340EA030021FA04F3A5
:107EA00045EA030130BDC4F10C04C4F1200220FAFC
:107EB00002F001FA04F340EA0300294630BD21FA3A
:107EC00004F0294630BD94F0000F83F4801306BF00
:107ED00081F480110134013D4EE77FEA645C18BFF4
:107EE0007FEA655C29D094EA050F08BF90EA020F8B
:107EF00005D054EA000C04BF1946104630BD91EA83
:107F0000030F1EBF0021002030BD5FEA545C05D185
:107F10004000494128BF41F0004130BD14F58004C4
:107F20003CBF01F5801130BD01F0004545F0FE4138
:107F300041F470014FF0000030BD7FEA645C1ABF6D
:107F4000194610467FEA655C1CBF0B46024650EAA4
:107F5000013406BF52EA033591EA030F41F40021D0
:107F600030BD00BF90F0000F04BF0021704730B556
:107F70004FF4806404F132044FF000054FF000012B
:107F800050E700BF90F0000F04BF0021704730B5EC
:107F90004FF4806404F1320410F0004548BF4042C1
:107FA0004FF000013EE700BF42004FEAE2014FEA16
:107FB00031014FEA02701FBF12F07F4393F07F4FF1
:107FC00081F06051704732F07F4208BF704793F0F4
:107FD0007F4F04BF41F40021704730B54FF4607407
:107FE00001F0004521F000411CE700BF50EA01020A
:107FF00008BF704730B54FF000050AE050EA0102B3
:1080000008BF704730B511F0004502D5404261EB22
:1080100041014FF4806404F132045FEA915C3FF463
:10802000D8AE4FF003025FEADC0C18BF03325FEA00
:10803000DC0C18BF033202EBDC02C2F1200300FAB1
:1080400003FC20FA02F001FA03FE40EA0E0021FAD6
:1080500002F11444BDE600BF70B54FF0FF0C4CF4C4
:10806000E06C1CEA11541DBF1CEA135594EA0C0F76
:1080700095EA0C0F00F0DEF82C4481EA030621EAB1
:108080004C5123EA4C5350EA013518BF52EA0335EC
:1080900041F4801143F4801338D0A0FB02CE4FF09E
:1080A0000005E1FB02E506F00042E0FB03E54FF0CE
:1080B0000006E1FB03569CF0000F18BF4EF0010EC6
:1080C000A4F1FF04B6F5007F64F5407404D25FEAC2
:1080D0004E0E6D4146EB060642EAC62141EA555175
:1080E0004FEAC52040EA5E504FEACE2EB4F1FD0CB7
:1080F00088BFBCF5E06F1ED8BEF1004F08BF5FEA35
:10810000500E50F1000041EB045170BD06F00046E6
:1081100046EA010140EA020081EA0301B4EB5C0493
:10812000C2BFD4EB0C0541EA045170BD41F480118B
:108130004FF0000E013C00F3AB8014F1360FDEBFB0
:10814000002001F0004170BDC4F10004203C35DA8C
:108150000C341BDC04F11404C4F1200500FA05F30F
:1081600020FA04F001FA05F240EA020001F00042B0
:1081700021F0004110EBD37021FA04F642EB060126
:108180005EEA430E08BF20EAD37070BDC4F10C0450
:10819000C4F1200500FA04F320FA05F001FA04F214
:1081A00040EA020001F0004110EBD37041F1000100
:1081B0005EEA430E08BF20EAD37070BDC4F120050B
:1081C00000FA05F24EEA020E20FA04F301FA05F273
:1081D00043EA020321FA04F001F0004121FA04F21B
:1081E00020EA020000EBD3705EEA430E08BF20EAEB
:1081F000D37070BD94F0000F0FD101F00046400025
:1082000041EB010111F4801F08BF013CF7D041EAA6
:10821000060195F0000F18BF704703F000465200AA
:1082200043EB030313F4801F08BF013DF7D043EA7B
:108230000603704794EA0C0F0CEA135518BF95EA31
:108240000C0F0CD050EA410618BF52EA4306D1D1B8
:1082500081EA030101F000414FF0000070BD50EAD7
:10826000410606BF1046194652EA430619D094EA61
:108270000C0F02D150EA013613D195EA0C0F05D14B
:1082800052EA03361CBF104619460AD181EA03019F
:1082900001F0004141F0FE4141F470014FF0000057
:1082A00070BD41F0FE4141F4780170BD70B54FF0F2
:1082B000FF0C4CF4E06C1CEA11541DBF1CEA135572
:1082C00094EA0C0F95EA0C0F00F0A7F8A4EB050454
:1082D00081EA030E52EA03354FEA013100F088804B
:1082E0004FEA03334FF0805545EA131343EA126314
:1082F0004FEA022245EA111545EA10654FEA0026C9
:108300000EF000419D4208BF964244F1FD0404F581
:10831000407402D25B084FEA3202B61A65EB0305DD
:108320005B084FEA32024FF480104FF4002CB6EB9A
:10833000020E75EB030E22BFB61A754640EA0C001A
:108340005B084FEA3202B6EB020E75EB030E22BF5A
:10835000B61A754640EA5C005B084FEA3202B6EB9B
:10836000020E75EB030E22BFB61A754640EA9C005A
:108370005B084FEA3202B6EB020E75EB030E22BF2A
:10838000B61A754640EADC0055EA060E18D04FEAE8
:10839000051545EA16754FEA06164FEAC30343EA88
:1083A00052734FEAC2025FEA1C1CC0D111F4801F55
:1083B0000BD141EA00014FF000004FF0004CB6E74E
:1083C00011F4801F04BF01430020B4F1FD0C88BFED
:1083D000BCF5E06F3FF6AFAEB5EB030C04BFB6EBF8
:1083E000020C5FEA500C50F1000041EB045170BDEB
:1083F0000EF0004E4EEA113114EB5C04C2BFD4EB18
:108400000C0541EA045170BD41F480114FF0000E9B
:10841000013C90E645EA060E8DE60CEA135594EA17
:108420000C0F08BF95EA0C0F3FF43BAF94EA0C0F1A
:108430000AD150EA01347FF434AF95EA0C0F7FF48F
:1084400025AF104619462CE795EA0C0F06D152EAE3
:1084500003353FF4FDAE1046194622E750EA4106C7
:1084600018BF52EA43067FF4C5AE50EA41047FF4D8
:108470000DAF52EA43057FF4EBAE12E74FF0FF3C3D
:1084800006E000BF4FF0010C02E000BF4FF0010C0E
:108490004DF804CD4FEA410C7FEA6C5C4FEA430C87
:1084A00018BF7FEA6C5C1BD001B050EA410C0CBFD6
:1084B00052EA430C91EA030F02BF90EA020F002038
:1084C000704710F1000F91EA030F58BF994208BF9F
:1084D00090422CBFD8176FEAE37040F0010070475C
:1084E0004FEA410C7FEA6C5C02D150EA013C07D1B3
:1084F0004FEA430C7FEA6C5CD6D152EA033CD3D0FE
:108500005DF8040B704700BF8446104662468C46F7
:108510001946634600E000BF01B5FFF7B7FF00282A
:1085200048BF10F1000F01BD4DF808EDFFF7F4FF53
:108530000CBF012000205DF808FB00BF4DF808EDDE
:10854000FFF7EAFF34BF012000205DF808FB00BF01
:108550004DF808EDFFF7E0FF94BF012000205DF823
:1085600008FB00BF4DF808EDFFF7CEFF94BF0120D8
:1085700000205DF808FB00BF4DF808EDFFF7C4FFD1
:1085800034BF012000205DF808FB00BF4A0011D273
:1085900012F5001211D20DD56FF47873B3EB62525D
:1085A0000ED44FEAC12343F0004343EA505323FA69
:1085B00002F070474FF00000704750EA013002D1DE
:1085C0004FF0FF3070474FF0000070474FEA410214
:1085D000B2F1E04324BFB3F5001CDCF1FE5C0DD921
:1085E00001F0004C4FEAC0024CEA5070B2F1004F6B
:1085F00040EB830008BF20F00100704711F0804F6E
:1086000021D113F13872BCBF01F00040704741F432
:1086100080114FEA5252C2F11802C2F1200C10FA36
:108620000CF320FA02F018BF40F001004FEAC1231A
:108630004FEAD32303FA0CFC40EA0C0023FA02F3BE
:108640004FEA4303CCE77FEA625307D150EA013394
:108650001EBF4FF0FE4040F44000704701F0004064
:1086600040F0FE4040F40000704700BFD0B50C4B16
:10867000002206460F46FFF7EFFCFFF787FF044690
:10868000FFF770FC074B0022FFF7E6FC02460B46A3
:1086900030463946FFF728FBFFF778FF2146D0BD6B
:1086A0000000F03D0000F041002301461A46184644
:1086B00000F0B0BF002100F0F1BE0A44914200F189
:1086C000FF3300D1704710B511F8014B03F8014F8B
:1086D0009142F9D110BD884210B501EB020402D9D4
:1086E0008442234607D8431EA14208D011F8012B2B
:1086F00003F8012FF8E7024401468A4200D110BD79
:1087000013F8014D02F8014DF7E702440346934286
:1087100000D1704703F8011BF9E7000038B50D4B95
:108720001D68AB6B04467BB91820FCF7D1FF0A4AE1
:108730000A4BA863C0E90023094B83600B238381A4
:1087400001220023C0E90423AB6B00221C615A61A3
:1087500038BD00BFF0E103200E33CDAB34126DE61F
:10876000ECDE0500C9B2034610F8012B1AB18A42AB
:10877000F9D118467047002918BF0023F9E710B552
:108780000446FFF7EFFF18B9204600F032F8204406
:1087900010BD10F8012B11F8013B012A28BF9A42A5
:1087A000F7D0D01A7047034611F8012B03F8012BBC
:1087B000002AF9D170470000024B0146186800F00A
:1087C00003B800BFF0E1032037B5044608460D4664
:1087D00000F00FF8421C114620460192FCF7A8FF5A
:1087E000044618B1019A2946FFF767FF204603B0F7
:1087F00030BD034613F8012B002AFBD1181A0138AB
:10880000704710B56AB10139841810F8013B11F8AE
:10881000012F934203D1A04201D0002BF5D1981A29
:1088200010BD1046FCE738B503460C4669B9BDE8F3
:108830003840FFF797BF431C054621461846FFF70F
:1088400091FF0028F7D1284638BD0025F5E770B51F
:1088500004460D4645EC104B164601F0ADFD51ECBB
:10886000100B7EB1C5F30A53C3F16B03002B09DD76
:108870001B0503F17F55002405F5401522462B46C4
:10888000FFF7EAFB70BD00002DE9F04FA3B01F46D3
:1088900000231E93A44B19921B68079304461846A5
:1088A0008846FFF7A6FF4FF0000A05464FF0000B81
:1088B000CDF874801D9B1A782B2A4CD039D80D2AFC
:1088C00032D8082A32D8002A3CD000230E931D9EAD
:1088D0003378302B40F0B480737803F0DF03582BEB
:1088E0006CD10E9B01931EAB029700938F4A1FAB76
:1088F0001DA9204600F058FF10F00707054605D0D7
:10890000062F2AD1013600231D960E93199B002BAA
:1089100040F096850E9BDBB152460BF1004343ECD1
:10892000102B23B0BDE8F08F202ACED101331D9348
:10893000C0E72D2AC9D101220E925A1C1D925B78E4
:10894000002BC4D1199BCDF87480002B40F07685A4
:1089500052465B46E3E70022EEE71E9A3AB1352124
:1089600020A801F028FE1E99204601F05CFA013F84
:10897000052F07D8DFE807F00E0B181D0E034FF088
:10898000000BDA462807C1D54BF0004BBEE7DDE906
:1089900020ABF7E7DDE920A31F9A23F4801302F24E
:1089A000334243EA025BEDE7DFF884B14FF0000A9F
:1089B000E8E76FF0004B4FF0FF3AE3E71D9B5A1CCE
:1089C0001D925B78302BF9D0002B9FD001234FF004
:1089D000000904931D9B0A93CDF824904F460A2268
:1089E0001D980678A6F13003D9B209292AD907992A
:1089F0002A46FFF706FF98B3002033463D4607900E
:108A00000246652B01D0452B18D11DB9049B0343A9
:108A100098D00025DDF8748008F101031D9398F8C3
:108A200001302B2B75D02D2B7BD04FF0000CA3F1F8
:108A30003001092940F28280CDF8748000269DE043
:108A40000023C4E7082FD8BF099900F10100DABF5D
:108A500002FB0133099302FB093901371D90BFE77F
:108A60001D9B5A191D925B5D002F37D007903D4624
:108A7000A3F13002092A12D90122C2E71D9B5A1C18
:108A80001D925B780130302BF8D0A3F13102082A17
:108A900000F2DB841D9A079000200A920546303BC5
:108AA00000F1010214D00799114407912A4600EB06
:108AB000050E0A21724513D12A18082A05F101056D
:108AC00005441CDC09990A2202FB013309930022A8
:108AD0001D9B591C1D915B781046C9E73846D2E7AB
:108AE000082A04DC099E4E4309960132E2E702F1AE
:108AF000010CBCF1100FD8BF01FB09F9F5E7102DEF
:108B0000DCBF0A2202FB0939E1E7002307930122B7
:108B10007CE74FF0000C08F102031D9398F8023037
:108B200085E74FF0010CF6E724AC0D00CCAA0D0050
:108B30000000F07F1D9B591C1D915B78302BF9D0F4
:108B4000A3F1310108293FF679AFA3F1300E1D9B47
:108B500008931D9B591C1D915B78A3F13006092ECB
:108B600037D9089E891B082944F61F6602DC764522
:108B7000A8BF7646BCF1000F00D07642002D4FD141
:108B8000049901437FF4C2AE002A7FF4DBAE692B67
:108B900027D024DC492B24D04E2B7FF4D3AE9E4922
:108BA0001DA801F047F800283FF4CCAE1D9B1B78B0
:108BB000282B2DD1994920AA1DA801F04FF805288E
:108BC00026D1219BDDF880A043F0FF4B4BF4E00B56
:108BD0009CE60A2101FB0E3EAEF1300EB9E76E2B8A
:108BE000DBE78F491DA801F025F800283FF4AAAE65
:108BF0001D9B8C49013B1DA81D9301F01BF810B96A
:108C00001D9B01331D93DFF82CB24FF0000A7DE667
:108C1000854801F025FD8DED040BDDE904AB75E61B
:108C2000079B0998F31A002F08BF2F46102D0893B1
:108C3000A846A8BF4FF01008FFF794F9092D824607
:108C40008B4613DD794B03EBC80353E91223FFF77F
:108C500003FA824648468B46FFF784F902460B46E4
:108C600050465946FFF742F882468B460F2D38DCB6
:108C7000089B002B3FF44AAE24DD162B0BDC6B4D1A
:108C800005EBC305D5E9000152465B46FFF7E4F961
:108C900082468B463AE6089AC5F12503934220DBCB
:108CA000624CC5F10F0504EBC50152465B46D1E9A4
:108CB0000001FFF7D1F9089B5D1B04EBC504D4E963
:108CC0000023E3E7089B16330BDB079B574A9E1BE9
:108CD00002EBC606D6E9002350465946FFF7E6FAEE
:108CE000D6E7089BA5EB08089844B8F1000F71DDA2
:108CF00018F00F030AD04D4901EBC30152465B4601
:108D0000D1E90001FFF7A8F982468B4638F00F0839
:108D10004DD0B8F59A7F22DD00252E46099507959E
:108D20002223DFF810B123604FF0000A099B002BCB
:108D30003FF4ECAD1E99204601F075F807992046E6
:108D400001F071F83146204601F06DF8099920468E
:108D500001F069F82946204601F065F8D6E50023C0
:108D60004FEA2818504659469946B8F1010F21DCC0
:108D70000BB182468B462E4BABF1547B03EBC909FA
:108D800052465B46D9E90001FFF766F9294B0A46CE
:108D90000B4029498B428246BED8A1F580118B42F7
:108DA00086BFDFF898B04FF0FF3A02F1547B002302
:108DB000049381E018F0010F07D01D4B03EBC903AA
:108DC000D3E90023FFF748F9012309F101094FEA2C
:108DD0006808CAE7EBD0C8F1000818F00F020AD003
:108DE000124B03EBC20350465946D3E90023FFF769
:108DF0005DFA82468B465FEA2818D8D0B8F11F0F7B
:108E00001EDD00252E460995079522234FF0000A06
:108E10004FF0000B236089E7C6AA0D00E0AA0D0001
:108E2000BDAA0D00C0AA0D0036A90D0060AC0D0052
:108E300038AC0D000000F07F0000A07CFFFFEF7F4A
:108E400018F0100318BF6A23DFF8B4930493504658
:108E50005946002318F0010F04D0D9E90023FFF789
:108E6000FBF801235FEA680809F10809F2D10BB1A8
:108E700082468B46049BBBB1CBF30A53C3F16B0311
:108E8000002B594610DD1F2B40F32881342BDEBF09
:108E9000203B4FF0FF3202FA03F34FF0000ACCBF41
:108EA0004FF05C7B03EA010B002200235046594639
:108EB000FFF73AFB0028A4D1099B00930A992B469F
:108EC0003A46204601F004F8099000283FF424AF08
:108ED000079B9E1B089B002BB4BF334600231093B7
:108EE000089B002523EAE37318932E46099B20462E
:108EF000596800F064FF079000283FF411AF099B08
:108F00001A69023203F10C0192000C30FFF7D5FB15
:108F10004BEC10AB20AA1FA92046CDE90AAB01F00B
:108F2000C7FA1E9000283FF4FBAE0121204601F055
:108F30005DF8064600283FF4F3AE1F9B0499002B12
:108F4000ABBF109A189A189FDDF84090ACBF03EBA6
:108F50000209D71A209AA3EB01089044A34B08F109
:108F6000FF389845C2F1360280F2CC80A3EB0803AB
:108F70001F2BA2EB03024FF0010100F3B68001FAB0
:108F800003F3119300230C9309EB0208049BC145E2
:108F900017441F444B46A8BF4346BB42A8BF3B46AD
:108FA000002BC2BFA8EB0308FF1AA9EB0309109B13
:108FB000002B17DD31461A46204601F0BDF8064663
:108FC00000283FF4ADAE01461E9A204601F017F886
:108FD0000F9000283FF4A4AE1E99204600F023FF16
:108FE0000F9B1E93B8F1000F00F39180089B002B9C
:108FF00008DD189A0799204601F09EF8079000288E
:109000003FF48EAE002F08DD07993A46204601F066
:10901000E1F8079000283FF483AEB9F1000F08DDB6
:1090200031464A46204601F0D5F8064600283FF46E
:1090300077AE079A1E99204601F047F905460028A9
:109040003FF46EAEC3680F930023C360314601F056
:1090500020F9002865DA0F9B53EA0A0340F0878065
:10906000CBF31303002B40F082802BF000431B0D49
:109070001B05B3F1D66F7AD96B6913B92B69012B34
:1090800075DD29460122204601F0A4F83146054647
:1090900001F0FFF800286ADD0499554A5B46002973
:1090A00000F0858002EA0B01B1F1D66F7FDCB1F1EF
:1090B0005C7F7FF7AAAE4F4A0023CDE916325046B7
:1090C000DDE916235946FEF7C7FF0B46034308BFE9
:1090D000222382468B4608BF23602BE64FF0FF32E7
:1090E00002FA03F303EA0A0ADEE6C8F17F4808F54C
:1090F0007F0808F57B4808F1E20801FA08F30C93B1
:10910000119141E700230C93012311933CE71E9931
:109110004246204601F05EF81E9000287FF466AFBC
:10912000FEE55F466ED10F9ACBF3130342B3324A8A
:10913000934228D1049B5046EBB12D4A3A40B2F1FC
:10914000D46F4FF0FF3119D8120DC2F16B0301FA41
:1091500003F3984217D1294B9F4202D101303FF4CB
:10916000DFAD234B3B4003F5801B4FF0000A049B0F
:10917000002BA0D1DEE54FF0FF33EAE70B46E8E72E
:1091800053EA0A0388D00C9BDBB13B42EFD00F9B24
:10919000049A50465946C3B1FFF759FB02460B46A5
:1091A000DDE90A01FEF7A2FD82468B46DFE71340A8
:1091B000A3F580136FEA135B6FEA0B5B4FF0FF3A86
:1091C000D5E7119B13EA0A0FE0E7FFF740FB0246E1
:1091D0000B46DDE90A01FEF787FD002200238246E7
:1091E0008B46FFF7A1F90028C1D00EE602FCFFFF75
:1091F0000000F07F00005039FFFF0F00FFFFEF7FFE
:10920000F8AA0D003146284601F0A2F959EC108B5E
:1092100010EE100A00224FF080434946FFF798F9FC
:1092200000287CD00F9B002B4CD0954B0022CDE921
:109230000C23DFF84C924FF00008924B3B40119307
:10924000119A914B9A4240F0B280DDE90A23DDE9A0
:109250000C01A7F1547B4BEC10ABCDE91623CDE903
:109260000C0101F0A9F8DDE90C0153EC102BFEF71D
:10927000F3FE52465B46FEF739FD0B468149834AB1
:109280001940914282465ED90B9B02F1547293427F
:1092900003D10A9B01333FF443ADDFF8FCB14FF03B
:1092A000FF3A1E99204600F0BEFD0799204600F0C7
:1092B000BAFD3146204600F0B6FD2946204600F0B2
:1092C000B2FD13E6BAF1000F1BD1CBF31303F3B9D0
:1092D0006B4B002240464946FFF730F9D0B9404673
:1092E00049466B4B0022FEF7B7FE8046894609F1DE
:1092F0000043CDF868801B93DDE91A23CDE90C23E8
:109300009BE7BAF1010F02D1002F3FF47EAD614B14
:1093100000228CE7DFF878914FF00008E7E75C4B1C
:10932000404649460022FEF797FE0F9B804689463D
:1093300033B901F1004312901393DDE91223DDE705
:10934000CDE91289F9E703F1547B049B002BA8D1E6
:109350002BF00043119A1B0D1B059A42A1D14046E8
:10936000494601F093F9FEF749FE02460B46404696
:109370004946FEF7B9FC0F9ACBF3130343EA0A03FD
:1093800013438046894653D035A3D3E90023FFF722
:10939000D5F800287FF4CEAC33A3D3E900234046B0
:1093A0004946FFF7E9F800283FF47BAFC2E4049B8D
:1093B00033B3119BB3F1D46F22D82DA3D3E900238B
:1093C00040464946FFF7C4F8A0B149464046FFF77A
:1093D000DDF8012838BF0120FEF7C4FD0F9B804651
:1093E000894613BB01F1004314901593DDE9142362
:1093F000CDE90C230D9B119A03F1D6639B1A0D93B3
:10940000DDE90C019DED0A0BCDE90C0100F0D4FF64
:10941000DDE90C0153EC102BFEF71EFEDDE90A23FB
:10942000FEF764FC82468B468FE7CDE91489DDE7C1
:1094300011A3D3E90023FFF781F8B4E700230E93CB
:10944000199A1D9B1360FFF765BA652B3FF45DAB5E
:10945000452B3FF45AAB0122FFF792BBAFF30080DC
:109460009535A094FFFFDF3F35E5AF350000E03FC5
:109470000000C0FFFFFFDF419535A094FFFFCF3F05
:109480000000F03F0000F07F0000E07FFFFF9F7CC6
:109490000000E03F0000F0BFFFFFEF7F0A460146FB
:1094A0000248034B0068FFF7EFB900BFF0E103206B
:1094B0005CE20320F0B508B9106888B10446204684
:1094C00014F8015B0F4617F8016B1EB965B91560FA
:1094D000284605E0B542F6D1002BF0D114600370A8
:1094E000F0BD1C460CE015B914F8013B0E4616F809
:1094F000015BAB42F7D1002BF3D0002304F8013C11
:109500001460EDE70123FFF7D5BF00002DE9F04718
:109510003A4E86468C4660461CF8014BA55D15F018
:109520000805F8D12D2C33D19CF800404FF00108EC
:1095300000F1020C002B5CD0102B0CD1302C0AD186
:109540009CF8000000F0DF0058284DD19CF8014045
:1095500010230CF1020C08F10047013F0026B7FB75
:10956000F3F9304603FB197AA4F13005092D18D818
:109570002C46A34224DD751C07D081451DD301D1A3
:10958000A2451ADB00FB034001261CF8014BEBE768
:109590002B2C08BF9CF80040A84608BF00F1020C25
:1095A000C8E7A4F14105192D01D8373CE1E7A4F142
:1095B0006105192D04D8573CDBE74FF0FF36E4E78F
:1095C000731C06D12223CEF80030384642B9BDE8DC
:1095D000F087B8F1000F00D04042002AF7D00EB15A
:1095E0000CF1FF311160F2E73024002BB3D10823D6
:1095F000B1E7302CA4D00A23ADE700BF21AB0D00AA
:1096000013460A46014602480068FFF77FBF00BFC5
:10961000F0E103202DE9F843DFF8B8800646D8F8DA
:1096200000001F460D46914600F0B4FB254B1C6818
:1096300034B9254C1C60254B13B11B68C4F8883025
:1096400063681F2B07DDD8F8000000F0A5FB4FF082
:10965000FF30BDE8F8834EB3D4F8880088B91C4BBE
:1096600023B9D8F8000000F096FBF0E74FF48470BF
:10967000FCF72EF80028F4D00023C0E94033C4F8EA
:109680008800636840F8239001229A4000EB830130
:10969000D0F800311343022EC0F80031C1F88070B9
:1096A00002BFD0F804311A43C0F804216368D8F827
:1096B00000005A1C0233626044F8235000F06CFB37
:1096C0000020C6E7E4E7032058E70320000000007D
:1096D000D1560D0054E203200369B3EB611F2DE95D
:1096E000F0434FEA611200F1140445DD11F01F014F
:1096F00004EB830604EB82050CD100F11007294628
:10970000B14234D39B1A9B00EA1E964238BF002315
:10971000234415E054F82270C1F12008CF4005F130
:10972000040EA1467645F44615D89B1A9A00043AD1
:109730000135AE4238BF0022A318A75007B1043349
:109740001A1BA3424FEAA20208BF0023026108BF0E
:109750004361BDE8F083DCF800C00CFA08FC4CEA79
:10976000070749F8047B5EF8047BCF40DAE751F83D
:1097700004CB47F804CFC3E72346E1E7A0F1300369
:10978000092B02D82038C0B27047A0F16103052B25
:1097900001D84738F7E7A0F14103052B01D8273856
:1097A000F1E70020704700002DE9F04F2DED028B0E
:1097B00089B008EE100A0493BC4B1B68019318464D
:1097C0008B469046FFF715F8019BDBF80020034419
:1097D000824613F8013C0593931CC2F1FF2202F567
:1097E0007F02FE32D1181F4613F8010B009130287A
:1097F000F8D0FFF7C3FF044600283AD1019952463A
:109800003846FEF7FEFF0546002868D117F80A0023
:1098100007EB0A06FFF7B2FF002862D0334618783C
:1098200030281F4603F10103F9D0FFF7A7FF0123FA
:10983000B0FA80F46409354600933A461646013280
:109840003078FFF79BFF0028F8D101995246304647
:10985000FEF7D7FF80B94DB906EB0A052A46164632
:1098600001323078FFF78AFF0028F8D1AD1BAD0038
:1098700004E000242546E0E7002DF7D1337803F01B
:10988000DF03502B3BD173782B2B2CD02D2B2ED0DC
:10989000711C4FF000090878FFF770FF431EDBB220
:1098A000182B2CD8A0F1100211F8010FFFF766FF5A
:1098B000431EDBB2182B1DD9B9F1000F00D0524264
:1098C0001544CBF80010E4B1009B002B14BF002717
:1098D0000627384609B0BDEC028BBDE8F08F3E4646
:1098E00025460124CAE74FF00009B11CD3E74FF029
:1098F0000109FAE70A2303FB0202103AD4E73146D2
:10990000DFE7F31B013B2146072B52DC18EE100A60
:1099100000F055FA4FF0000B00F11409CAF10103F1
:109920000446CDF80890CDF800B00693B74243D373
:109930000298009B40F8043BA0EB09008010460110
:109940002061184600F002FB301AD8F80060B042DF
:1099500066DD871B3946204600F050FE8246A8B1DE
:109960007B1E591103F01F0259F821104FF0010A14
:109970000AFA02F20A4209D0534505DDB91E204613
:1099800000F03CFE002848D14FF0020A394620463C
:10999000FFF7A2FE3D44D8F80830AB424FDA18EE8C
:1099A000100A214600F03FFA149A00231360A327FF
:1099B0008FE701315B10A7E7731E059A039316F832
:1099C000013C934219D0BBF1200F07D1029B009AB2
:1099D00043F8042B0293002300939B4616F8010CD6
:1099E000FFF7CCFE009B00F00F0000FA0BF00343E2
:1099F00000930BF1040B039B0DE0039B069A1344A9
:109A0000BB42E0D31846019907935246FEF7F9FE90
:109A1000079B0028D7D11E4688E74FF0030AB5E719
:109A20000ADA371A214618EE100A3A4600F0D2FB3D
:109A3000ED1B044600F114094FF0000AABE7D8F81B
:109A40000400A8426DDD451BAE4231DCD8F80C3075
:109A5000022B23D0032B25D0012B15D1AE4213D1DD
:109A6000012E0BD1049AD8F804301360012323612E
:109A7000C9F80030149B62271C602AE7711E20463B
:109A800000F0BCFD0028EDD118EE100A214600F0D0
:109A9000CAF9149A0023136050271AE7159B002B6C
:109AA000F2D1DFE7159B002BDCD1EDE724AC0D00F4
:109AB0006F1EBAF1000F31D127B13946204600F0B0
:109AC0009DFD82467B11012159F8233007F01F07C5
:109AD00001FA07F71F422946204618BF4AF0020A3A
