:02000002D0002C
:1040000000400D00A4950D00000006000C00050105
:0840100004019A080000000001
:044018000C8E0D00FD
:1040200009480A49884208B505D0094A824202D0A7
:10403000121A02F0B2FF0748074A0021121A02F0D2
:10404000BAFF014808BD00BF40E2032094930D0071
:1040500028E4032028E40320EDE7032070B5074E91
:10406000074C02F0A3F9A41BA4080025A54200D127
:1040700070BD56F8043B98470135F7E75C930D0097
:1040800088930D0000F062B808B500F0CFF9BDE8E4
:10409000084002F043B901F071B901F06FB901F0C5
:1040A00075B90078B0FA80F04009704701230370B9
:1040B0007047000013B5054B1B788DF800303C238A
:1040C000044601F007FB204602B010BD28E403209F
:1040D00007B50022CDE90022012301F0DFF803B08B
:1040E0005DF804FB0EB403B503AB012153F8042BB8
:1040F000019301F06AFE02B05DF804EB03B0704773
:10410000F0B587B010EE107A10EE905A11EE106AEA
:1041100002F02CF80446384602F0B6FB02460B4685
:104120003046CDE9042302F0AFFBCDE90201284679
:1041300002F0AAFBDDE90423CDE900010249204693
:10414000FFF7D0FF07B0F0BD208E0D0008B502F0DC
:104150000DF84FF4165101F0FDFF144800F0D3FCA8
:10416000134B0021188802F091F9124B0121188895
:1041700002F08CF9104B0221188802F087F90F49E0
:104180000F48FFF7A5FF0F490F48FFF7A1FF0F49A1
:104190000F48FFF79DFF0F490F48FFF799FFBDE854
:1041A00008400E490E4800F03BBC00BF80E40320ED
:1041B00044E2032040E2032048E20320A9430D002B
:1041C0003C8E0D00E5410D00478E0D00B5420D00FF
:1041D000518E0D002D430D005E8E0D0001410D002E
:1041E0003CE4032038B50C4620462C492C4D02F007
:1041F0000FFF024660B901230146022000F0ABFE2A
:1042000005210246274800F05DFE01232B6038BDE2
:104210002549204602F0FCFE024658B9012302213E
:1042200000F099FE052102461E4800F04BFE0223D5
:104230002B60ECE71D49204602F0EAFE014658B922
:104240000123022200F087FE05210246154800F0F6
:1042500039FE03232B60DAE71549204602F0D8FE29
:10426000014660B902220123104600F074FE0521C8
:1042700002460C4800F026FE04232B60C7E700230B
:1042800002221146184600F066FE05210246054846
:1042900000F018FE05232B60B9E700BF908E0D00DB
:1042A00034E4032080E403209A8E0D00A48E0D00D8
:1042B000698E0D0038B5194D4FF4FA7228780C4606
:1042C0004FF4617101F062FEC82001F097F84FF4DD
:1042D000FA7228784FF4617101F058FE10492046B7
:1042E00002F096FE024658B901460123022000F072
:1042F00032FEBDE83840024606210A4800F0E2BD21
:104300000949204602F084FE0123024608B9022131
:10431000EDE7002102220846E9E700BF40E2032062
:104320006B8E0D0080E403206F8E0D0013B50C46DC
:104330000F4800F0EBFA0F49204602F069FE012316
:10434000014660B905220190104600F004FE019973
:104350000246094802B0BDE8104000F0B3BD00229B
:104360000521104600F0F7FD00210246F1E700BFED
:104370003CE40320748E0D0080E4032038B504680B
:1043800005467CB16368013B63605BB923682046E6
:104390009B689847A368013BA3601BB9236820462C
:1043A000DB689847284638BD13B51D4A0C46684659
:1043B0001C49FFF77FFE01A8FFF7E0FF20461849E0
:1043C000194C02F025FED8B94FF4FA724FF47A7105
:1043D000207801F0DBFDC82001F010F84FF4FA72EC
:1043E0004FF4FA61207801F0D1FDC82001F006F801
:1043F0002078C82240F6B83101F0C8FD02B010BDE7
:10440000207864224FF47A7101F0C0FDC82000F0DA
:10441000F5FF207864224FF47A7101F0B7FDEDE7E3
:10442000098F0D00788E0D0040E203202DE9F04346
:1044300087B000F01BFF38B102A8814A8149FFF71D
:1044400039FE03A8FFF79AFF00F010FF38B902A861
:104450007D4A7C49FFF72EFE03A8FFF78FFF7B4BB9
:104460007B4C188802F04FF8B0F5967F20604FF033
:10447000000347DD1A4619460A2000F06CFD0121B1
:104480000246744800F01EFD724800F075FB21687A
:104490000A2202A801F04BFD029A6F496F4E704F3D
:1044A000704C6846FFF706FE01A8FFF767FF02A8F9
:1044B00001F0CCFC674800F05FFB308802F010F898
:1044C0003A68694B90421860984651D001F04EFE10
:1044D0002568002D814641DA2D2101F03FFC69421B
:1044E0000A22484601F053FC484601F03AFC308865
:1044F00001F0F6FF012833D12368052B40DD0023AE
:10450000236032E0642814DD1A4618460A2100F0C0
:1045100022FD012102464F4800F0D4FC4D4800F036
:104520002BFB21680A2202A801F001FD029A4F49E3
:10453000B4E7194618460A2200F00DFD0121024693
:10454000444800F0BFFC434800F016FB21680A22F3
:1045500002A801F0ECFC029A45499FE72946BFE713
:10456000308801F0BDFF0028C6D0D8F800303B608D
:104570002368052B11D8DFE803F00625292D3135F6
:1045800001332360F1E700221146642000F0DEFCD5
:10459000022102462F4800F095FC23682BBB354BC7
:1045A0001A68002A48D11146642000F0CFFC03218C
:1045B0000246284800F086FC2F4800F0E3F907B0D7
:1045C000BDE8F083002264211046DFE76422002169
:1045D0000846DBE7642200211046D7E76422114633
:1045E0000020D3E700226421F2E7012B07D1214B01
:1045F0001B68012B20D1002264210020D5E7022B6B
:1046000006D11C4B1B68022B16D164220021F4E753
:10461000032B07D1174B1C68032C0DD164220021FA
:104620001046C2E7042B07D1124B1B68022B03D1A3
:10463000C82264211046B8E764221146DDE700BFB6
:10464000098F0D00788E0D00848E0D0044E203204A
:1046500094E4032080E40320888E0D0048E20320C8
:1046600038E4032030E403202CE40320928E0D0074
:104670009C8E0D0034E403203CE4032010B5074B6E
:10468000074800221A7000F0EFF80623BDE810403A
:1046900004481A46072100F05DBA00BF28E4032051
:1046A0003CE4032080E4032010B5064B044640F8A8
:1046B0002C3B01F0CBFB04F10C0001F0C7FB2046C2
:1046C00010BD00BF348F0D0010B50446FFF7ECFF9E
:1046D0002046442101F06CFF204610BD70B51B4DF3
:1046E0001B4C2E68A41B1D2C88B02DD990F82E30A1
:1046F00016F8011C0793436B069390F82B30059333
:1047000090F82A30049390F82930039390F82830D9
:10471000029390F82730019390F826300D4A0093C9
:104720000D4B30465B2918BF13460C4A214600F05A
:104730003DFE002808DD844206DD2B68084A184447
:10474000136828600133136008B070BD98E503203A
:1047500095E50320A68E0D00A78E0D00A88E0D00F6
:10476000A0E503202DE9F04304462DED028B636A9A
:1047700083B01046002B38D002F05CFC1D4901AA22
:10478000054603F0EBFA68B302F004FC194901AAEC
:10479000002057EC106B03F0E1FA18B302F0FAFBBB
:1047A000144901AA002059EC108B03F0D7FAC8B1C4
:1047B00002F0F0FB51EC100B02F078FB494608EEDA
:1047C000900A404602F072FB394608EE100A304665
:1047D00002F06CFB636A00EE100AB0EE681AF0EEAD
:1047E000480A9847284600F0D1FD03B0BDEC028B83
:1047F000BDE8F083A68E0D00022A38B5044607D026
:10480000032A11D0012A01D10B682360002038BD92
:104810000C200D68FFF73FFC03460028F5D095E813
:10482000070083E80700F0E700680028EED00C21BD
:1048300001F0BEFEEAE770B4036809685C689D6831
:104840001B681268661005EB6400E40744BFAC59AE
:10485000E35870BC184710B58368044613B10322AF
:1048600001469847204610BD38B50F4B0360002520
:1048700042F210730446C0E901530C490C3001F0B8
:1048800030FB4FF4FA53A362C4E907550849656247
:1048900004F12C0001F025FB4FF49B724FF4CD7313
:1048A000C4E90F23204638BD348F0D00DE8E0D0085
:1048B000EC8E0D00F8B5104C104F114E114900252B
:1048C00020463D6002F0AEFB04F10B0333600E485E
:1048D0005B232946A37200F08DFC33685D221A70B9
:1048E0007D225A709A70DD701A1D3B68326003B9E0
:1048F00023700148F8BD00BF98E40320A0E5032021
:1049000098E50320F18E0D00DD460D0030B585B031
:10491000054601F02BFC184901F02FFA2846FFF755
:10492000C9FF044601F022FC14492246FFF7DAFBD6
:104930002378F3B100F09AFCD8B1114BE9681B78E9
:104940008DF8003022463C2302A800F0C3FE039CF1
:104950007CB16368013B63605BB9236820469B6858
:104960009847A368013BA3601BB923682046DB6816
:10497000984705B030BD00BFFC8E0D000C8F0D00B8
:104980009CE5032010B5036A022B04460BD0032BD1
:1049900022D0BBB900F06AFCA0B10223236200F070
:1049A00009FBE0610EE000F005FBE369C01AA36AB1
:1049B000984207D36368012B05D12046FFF7A6FF75
:1049C0000423236210BD002BFAD00323236200F0DE
:1049D000F1FAA368C01AE4E700F048FC70B100F0F7
:1049E000E9FAE369C01AA3689842EBD300F0E2FA4F
:1049F000E0612046BDE81040FFF788BF2062E1E794
:104A000038B5002383608B6804460D462BB1022223
:104A10009847EB68E360AB68A360204638BD0000B0
:104A200030B58DB0C3684162044608A8039300F016
:104A300025FC089A039B00924FF480711A4A1B4888
:104A400000F0B4FC08A801F001FA00250C2006953E
:104A5000FFF721FB18B1164B8460C0E90035154BF8
:104A60000490079304A9144B069308A8FFF7C8FF06
:104A70000A9B7BB11020FFF70EFB054650B108A939
:104A8000FFF7BEFF0023CDE900330C4907482A4653
:104A900000F004FC08A8FFF7DEFE04A8FFF7DBFE29
:104AA00020460DB030BD00BF188F0D0098E40320E4
:104AB00065470D0037480D00F9470D00D3540D0030
:104AC000014B01221A7070479CE5032038B504465B
:104AD000C0680D4608B100F059FCA379062B0CBF45
:104AE0000420032010FB05F080B2A08000F046FCFB
:104AF000E06028B1A288002102F05DFA658038BD2F
:104B0000A0806080FBE710B504460121C07901F068
:104B1000BDFCE079002101F0CAFC0123237010BD27
:104B200037B5037805460C461BB1C079002101F06A
:104B3000ADFC2B78EC715BB1A0B20121019001F0CA
:104B4000A5FC0198002103B0BDE8304001F0AFBCE6
:104B500003B030BD70B50025044616468371C0E928
:104B6000035505700572FFF7B1FF20463146FFF788
:104B7000D7FF204670BD0000C368002B00F08D8178
:104B80002DE9F04F8379023BDBB2042B9CBFC84A6E
:104B900052F8234087B0054688BF322400F002FA5D
:104BA0002B69C01AA042F9D3C24AAB8807CA06AC27
:104BB00004E90700039CD4F800251AB9D4F860254D
:104BC000002A7CDB049CD4F8002522B9D4F86025A7
:104BD000002AC0F25281059CD4F80025002A00F07A
:104BE0003781B54BB5481C68EB79C1681A0104EBF5
:104BF0000316A75C7378B24C41F08071C1602268E3
:104C000003F01F0343EA471301273A432260A988B0
:104C1000D5F80C80D4F804909F40002944D04FF080
:104C2000000E72464FF0A04118F801CB08208026F4
:104C300063689B1A462BFBD96268D1F808351CEAD9
:104C4000060F43EA0703C1F808352FD063689B1AA3
:104C5000282BFBD9D1F80C35013843EA07034FEA7A
:104C60005606C1F80C35E3D1AB880EF1010E1FFAE0
:104C70008EFE7345D8D84FF4307101FB03F16368A1
:104C80009B1A462BFBD96368A3EB09098945C0F041
:104C9000D9804FF4967000F07DF9A988D5F80C8082
:104CA000D4F804900029BAD10A46E8E763689B1A51
:104CB000112BCFD863689B1A112BF7D9CAE7D4F808
:104CC0006425002ABFF67EAFD4F86825002ABFF617
:104CD00079AFD4F86C25002ABFF674AF1B010433FA
:104CE0001846009300F04AFB00283FF47AAFAB88E7
:104CF000002B00F0DA80EA68013B12FA83FE02F131
:104D0000FF3C002348F2060248F20D011CF8017F27
:104D100017F0800F0CBF9046884620F8138003F1EF
:104D2000010817F0400F1FFA88F80CBF93468B4616
:104D300020F818B003F1020817F0200F1FFA88F8C6
:104D40000CBF92468A4620F818A003F1030817F01A
:104D5000100F1FFA88F80CBF9146894620F818906A
:104D600003F104091FFA89F917F0080F03F1050888
:104D70000CBF92468A461FFA88F817F0040F20F8F5
:104D800019A00CBF9146894620F8189003F1060837
:104D900017F0020F1FFA88F803F108060CBF9146BE
:104DA00089460733FF0720F8189001969BB275D506
:104DB000E64520F81310BDF80430A7D1591C023382
:104DC00089B29BB249005B00009A4FF400474752FA
:104DD00056083949C75200224FF0140CC4F8042574
:104DE000C4F80C25C4F808C5C4F81425C4F8102567
:104DF000C4F82005C4F82465C4F82825C4F82C2577
:104E0000EB790E6806EB031719017B78715C03F0F0
:104E10001F0343EA41130121C4F86035C4F80015AB
:104E2000C4F81021A160D4F81031002BFBD000236E
:104E30004FF0FF32C4F81031C4F80035C4F86025D3
:104E400000F0A4FA00F0AEF8286107B0BDE8F08FDA
:104E5000D4F86025002ABFF6C4AED4F86425002A31
:104E6000BFF6BFAED4F86825002ABFF6BAAED4F8B4
:104E70006C25002ABFF6B5AE30E7D4F86425002AC9
:104E8000BFF6A9AED4F86825002ABFF6A4AED4F8C0
:104E90006C25002ABFF69FAE20E77047E64520F854
:104EA0001320B3B27FF432AF88E7042302218BE7EB
:104EB000488F0D003C8F0D00A4E50320F0ED00E0CD
:104EC000001000E043888B42F0B526D9057AC2F382
:104ED0000743C2F30724D6B23DB16B436C436E4324
:104EE000C3F30723C4F30724360A90F806C0C76843
:104EF000BCF1060F0CBF042503256943ACF1020C7D
:104F00007D18BCF1060F1DD8DFE80CF0041C080466
:104F10000F0404007C546B70AE70F0BDFE2B28BFF4
:104F2000FE237B546E70AC70F7E77B546C70AE70F0
:104F3000037A120E13B9D2B2EA70EEE75A43C2F303
:104F40000722F9E77B546C70AE70E6E742EA012174
:104F500041EA0040704742EA012141EA004040EA4C
:104F60000360704708B500F02DF8014B186008BDCC
:104F7000A4E5032008B5024B1B685B6C019308BDD8
:104F80004802030008B5024B1B685B68019308BD2B
:104F90001802030008B5024B1B68DB68019308BDCB
:104FA0001802030008B5024B1B681B69019308BD7A
:104FB0001802030008B5024B1B685B69019308BD2A
:104FC0001802030008B5024B1B681B68019308BD5B
:104FD0002C02030008B5024B1B685B68019308BDF7
:104FE0002C02030008B5024B1B689B68019308BDA7
:104FF0002C02030008B5024B1B68DB68019308BD57
:105000002C02030008B5024B1B681B69019308BD05
:105010002C02030008B5024B1B685B69019308BDB5
:105020002C02030008B5024B1B681B6B019308BDE3
:105030002C02030008B5024B1B681B6A019308BDD4
:105040002802030008B5024B1B685B6A019308BD88
:105050002802030008B5024B1B689B6A019308BD38
:105060002802030008B5024B1B68DB6A019308BDE8
:105070002802030008B5024B1B681B6B019308BD97
:105080002802030008B5024B1B685B6B019308BD47
:105090002802030008B5024B1B681B6C019308BD76
:1050A0002802030008B5024B1B685B69019308BD29
:1050B0006402030008B5024B1B689B68019308BD9E
:1050C0006802030008B5024B1B68DB68019308BD4A
:1050D0006802030008B5024B1B681B68019308BDFA
:1050E0002402030008B5024B1B68DB69019308BD6D
:1050F0003002030008B5024B1B681B6A019308BD10
:105100003002030008B5024B1B681B68019308BD01
:105110003C02030008B5024B1B68DB68019308BD25
:105120003C02030008B5024B1B681B69019308BDD4
:105130003C02030008B5024B1B685B69019308BD84
:105140003C02030008B5024B1B689B69019308BD34
:105150003C02030008B5024B1B68DB69019308BDE4
:105160003C02030008B5024B1B681B6A019308BD93
:105170003C02030008B5024B1B689B6A019308BD03
:105180003C02030008B5024B1B681B68019308BD75
:105190004C02030008B5024B1B685B68019308BD15
:1051A0004C02030008B5024B1B681B69019308BD44
:1051B0004C02030008B5024B1B685B69019308BDF4
:1051C0004C02030008B5024B1B689B69019308BDA4
:1051D0004C02030008B5024B1B68DB69019308BD54
:1051E0004C02030008B5024B1B681B6A019308BD03
:1051F0004C02030008B5024B1B68DB6D019308BD30
:105200007402030008B5024B1B685B68019308BD7C
:105210002002030008B5024B1B685B69019308BDBF
:105220002002030008B5024B1B68DB6C019308BD2C
:105230002002030008B5024B1B685B6D019308BD9B
:105240002002030008B5034B1B68D3F88830019394
:1052500008BD00002002030008B5034B1B68D3F80B
:105260009430019308BD00002002030008B5024BF2
:105270001B685B69019308BD4402030008B5024B3B
:105280001B68DB69019308BD4402030008B5024BAB
:105290001B681B6A019308BD4402030008B5024B5A
:1052A0001B685B6A019308BD4402030008B5024B0A
:1052B0001B68DB6B019308BD4402030008B5024B79
:1052C0001B685B68019308BD4002030008B5024BF0
:1052D0001B689B68019308BD4002030008B5024BA0
:1052E0001B68DB68019308BD4002030008B5024B50
:1052F0001B681B69019308BD4002030008B5024BFF
:105300001B685B69019308BD4002030008B5024BAE
:105310001B689B69019308BD4002030008B5024B5E
:105320001B68DB69019308BD4002030008B5024B0E
:105330001B681B6A019308BD4002030008B5024BBD
:105340001B681B6B019308BD4002030008B5024BAC
:105350001B685B6B019308BD4002030008B5024B5C
:105360001B681B6C019308BD4002030008B5024B8B
:105370001B685B6C019308BD4002030008B5024B3B
:105380001B681B68019308BD1C02030008B5024B93
:105390001B685B68019308BD1C02030008B5024B43
:1053A0001B689B68019308BD1C02030008B5024BF3
:1053B0001B68DB69019308BD1C02030008B5024BA2
:1053C0001B685B6A019308BD1C02030008B5024B11
:1053D0001B68DB6A019308BD1C02030008B5024B81
:1053E0001B681B6B019308BD1C02030008B5024B30
:1053F0001B685B6C019308BD1C0203000021FFF7D2
:1054000009BF10B5836804460BB901F0D5F8C3682D
:105410009847A3681BB1032221462046984720469F
:105420001021BDE8104001F0C3B80B68036013B150
:105430005A6801325A607047024800230360FFF740
:1054400099BD00BFA8E5032070470020704710B544
:105450001021044601F0ACF8204610BD08B5FFF756
:10546000F6FF08BD30B500224FF69C7402608480C0
:105470008D888C800C68858004600A6030BD10B512
:1054800004460068FFF782FF204610BD38B5C468A7
:10549000F4B12378022B03D104F10C00FFF7EFFFE6
:1054A000656835B12846FFF7D6F91021284601F086
:1054B0007FF8A56835B12846FFF7CDF910212846B9
:1054C00001F076F820461421BDE8384001F070B8AC
:1054D00038BD07B5CDE9001282680AB901F06CF851
:1054E000C36801AA6946984703B05DF804FB73B529
:1054F0000E46044656F8043B00930D4601A831467B
:10550000FFF793FF019A009B6260236001A80023CC
:1055100001930093FEF732FF3046FEF72FFF284637
:10552000082101F045F8204602B070BD13B50B46C6
:105530000246D0E900016C4684E8030093E80300CA
:1055400082E8030094E8030083E8030002B010BD82
:10555000826810B50AB901F02FF8BDE81040C368A1
:10556000184708B5006800F11001FFF7F1FF08BD0A
:10557000826810B50AB901F01FF8BDE81040C36891
:10558000184708B5006800F11001FFF7F1FF08BDEA
:1055900038B500230446036010200D46FEF77BFD5E
:1055A00028B10123C0E90133024B0360C5602060CC
:1055B000204638BD648F0D0038B5002383608B68AA
:1055C00004460D462BB102229847EB68E360AB68B6
:1055D000A360204638BD0000F0B589B00468684675
:1055E000FFF740FF4FF00203D4E84F2F002A03D10A
:1055F000C4E8413F0029F7D125D104F10C056946E3
:105600002846FFF72FFFBFF35B8F01236370002055
:1056100004F10803BFF35B8F53E8006F43E8000217
:10562000002AF9D1BFF35B8F6EB1FFF7FBFD78B1B4
:1056300029463046FFF78CFF3046FFF70CF9102162
:10564000304600F0B5FF6846FFF719FF09B0F0BD1E
:10565000314602A8FFF7B0FFE068B4F9105008B176
:1056600001F0E8FC06901020ADF81C50FEF713FD89
:105670000546E8B1002787601820FEF70CFD0446B8
:1056800088B10146876002A8FFF750FF049BA2681B
:10569000A360059B049206A9E268E36004F1100090
:1056A0000592FFF7DFFE084BEB60084B2C60AB6008
:1056B00006A8FFF7E4FE02A8FFF7CDF8002229466E
:1056C0000348FFF7B7FDB7E763550D00F9570D0025
:1056D00003540D002DE9F0478AB005469DF8489027
:1056E0000C4617469846FFF7C1FD07AE824638BB09
:1056F0004FF62E73059005A93046ADF81830FFF728
:10570000B1FE1420FEF7C7FC044648B10223037023
:105710000123C0E901AA437031460C30FFF7A2FE15
:105720002846214640F8044BFFF732FF3046FFF78A
:10573000A6FE05A8FFF7A3FE28460AB0BDE8F0873D
:105740000C234FF0000A1420CDE908AA0793FEF7B6
:10575000A2FC014628B1C0E901AA80F800A080F8A7
:1057600001A004A80391FFF713FF224B0893082020
:10577000FEF791FC824628B1039B40F8043B04A944
:10578000FFF753FE00965FFA89F3424639462046FA
:10579000CDF824A0FFF77AFDB8B9039B5B7803F03E
:1057A000FF0293B94FF69C7305A903A80592ADF8C3
:1057B0001830FFF711FF05A8FFF761FE05A809994A
:1057C000FFF795FE06A8FEF7D9FD039B059304A9F4
:1057D00006A8FFF72AFE059B069A2B606A60002345
:1057E00006A806930593FEF7C9FD04A8FEF7C6FDBB
:1057F000A2E700BFBD580D00022AF8B5054607D044
:10580000032A18D0012A01D10B6803600020F8BDDB
:1058100018200E68FEF73FFC044650B13146FFF7F2
:10582000CBFE3069B6F9147008B101F003FC2061B9
:10583000A7822C60EAE70468002CE7D004F110008E
:10584000FFF71DFE2046FFF706F81821204600F05E
:10585000AFFEDBE738B5002383608B6804460D4656
:105860002BB102229847EB68E360AB68A360204647
:1058700038BD022A70B5044607D0032A12D0012A87
:1058800001D10B680360002070BD14200E68FEF784
:1058900002FC054620B13146FFF7DCFF337C2B7458
:1058A0002560F0E70468002CEDD02046FEF7D3FF1A
:1058B0001421204600F07CFEE5E70000F0B589B039
:1058C00004460D4601A81146FFF711FEA4B124B20B
:1058D0001DB1284601F0AEFB054601A803A90395BA
:1058E000ADF81040FFF778FE03A8FFF7C8FD02A847
:1058F000FEF744FD09B0F0BD019D0123D5E84F2F0F
:10590000002A03D1C5E8413F0029F7D1EFD12B731D
:10591000BFF35B8F6B702B1DBFF35B8F53E8006F82
:1059200043E80042002AF9D1BFF35B8F002EDED09E
:105930002046FFF777FC074660B105F10C013046C1
:10594000FFF716FE3046FEF786FF1021304600F0C6
:105950002FFECCE7314603A8FFF77CFF2B7B8DF8A9
:105960001C301020FEF797FB0546D0B1876014204D
:10597000FEF791FB044678B18760014603A8FFF764
:10598000D5FD059BA268A360069B0592E268E360D3
:105990009DF81C3006922374064BEB60064B2C607E
:1059A000AB6003A8FEF757FF002229460348FFF724
:1059B00041FCC7E783550D0073580D0003540D00DB
:1059C000002240681146FFF7B1BC00224068114632
:1059D000FFF7BCBC40680022FFF7B0BC4068002263
:1059E00081F00101FFF79ABC002340681A4619466E
:1059F000FFF78CBC002340681A461946FFF77EBCAF
:105A0000002240681146FFF771BC00224068114631
:105A1000FFF75CBC406800220221FFF75FBC002357
:105A200040681A46FFF74ABC024B03225A60024AFA
:105A30001A607047ACE50320808F0D007047F8B501
:105A4000064615460C468F18BC4206D0336814F83B
:105A5000011B9B6830469847F6E72846F8BD007C56
:105A60000022FFF7E7BA007C0021FFF7EBBA007CC9
:105A70000021FFF7EFBA007C0021FFF7F3BA007CAA
:105A80000021FFF7F7BA10B51421044600F090FD8D
:105A9000204610BD10B54FF47A7304460846002125
:105AA000C4E90113034B236020741146FFF7F2FA97
:105AB000204610BDBC8F0D00704710B5182104465C
:105AC00000F076FD204610BDF0B5037D062B8DB0AD
:105AD0000E4600F104074FF0000412D000F1080553
:105AE00015F8011D0A22304600F051F9AF42044476
:105AF00019D0002CF4D02E21304600F02FF90444A8
:105B0000EEE72F236A4639460A208DF80040FFF75A
:105B1000C9FA684601F0ABFA33680246DB686946A9
:105B200030469847044620460DB0F0BD10B5054BF1
:105B30000446112240F8043B002101F03CFA2046C3
:105B400010BD00BFE48F0D000346074A10B543F8AF
:105B5000042B01F1100251F8044B43F8044B91421D
:105B6000F9D10A781A7010BDE48F0D0010B59DF8B8
:105B7000084044EA032343EA024242EA0161042363
:105B80004160037510BD13B5CB7800938B784A78CC
:105B90000978FFF7EBFF02B010BD0000014B024A8D
:105BA0001A607047B4E50320F08F0D0000234068B1
:105BB0001A46FFF783BB406800220221FFF78EBB25
:105BC000002240681146FFF781BB00224068114661
:105BD000FFF78CBB002340681A461946FFF78EBBBF
:105BE000002340681A461946FFF790BB4068002121
:105BF000FFF7B4BB40680021FFF7B8BB4068002244
:105C000081F00101FFF78ABB40680022FFF796BBD5
:105C1000002240681146FFF799BB002240681146F8
:105C2000FFF784BB2DE9F043002495B016460D46DE
:105C30000746FFF77BFF214618220EA8009401F0CB
:105C4000BAF94023CDE90C3421466B460CAA304604
:105C5000FFF738FA0446002846D102460121686859
:105C6000FFF744FB0221804622466868FFF73EFBAF
:105C7000009E81462146002E36D0002934D173681B
:105C8000022B03D00A2B0BD0F669F4E7B8F1000F12
:105C900004D0716938460431FFF775FF4146F3E7D8
:105CA000B9F1000F01D14946EEE77469102201A84D
:105CB00001F081F906238DF8143001AD04F10803D9
:105CC0001834186859682A4603C20833A342154697
:105CD000F7D101A906A807ADFFF736FF0FCD3C1D90
:105CE0000FC42B682370DEE70098FFF7E3F938460E
:105CF00015B0BDE8F0830000024B034A1A60002291
:105D00005A607047B8E50320FC8F0D00F8B50646D1
:105D10000D468F180024BD420CD0336815F8011BC6
:105D20009B6830469847031E01DB1C44F3E7002CB8
:105D300008BF1C462046F8BD13B50446084659B1B5
:105D4000019101F094F923680199DB68024620462D
:105D500002B0BDE81040184702B010BD03689B6850
:105D6000184738B50D210546FFF7F8FF0A2104460C
:105D70002846FFF7F3FF204438BD38B50546FFF746
:105D8000DBFF04462846FFF7ECFF204438BD30B562
:105D90008BB000238DF82430012A98BF0A2209AC69
:105DA0000D46B1FBF2F101FB125303F0FF03092B87
:105DB00094BF30333733DBB2AA4204F8013DEFD948
:105DC0002146FFF7B9FF0BB030BD2DE9F04186B099
:105DD00000AF05460E46381D142114463B60FFF700
:105DE000EDFA13280ED8391D2846FFF7A5FF044603
:105DF0001EB12846FFF7B5FF044420461837BD46BC
:105E0000BDE8F08100F1080323F00703E846ADEB9D
:105E1000030D2246411C3B686846FFF7CFFA6946EE
:105E20002846FFF789FF0446C546E1E7014B0022FB
:105E30009A607047C0E5032010B5044608462170FB
:105E4000FFF750F900236360204610BD10B50446EB
:105E50000068FFF79BFA204610BD10B504460068A5
:105E600008B1FFF793FA0023C4E90133236010BDA2
:105E700038B504460D4600680131FFF78FFA10B1BE
:105E8000C4E90005012038BD10B50368044623B1FC
:105E900043688B4201D3012010BD2046FFF7E8FF85
:105EA0000028F9D0A368002BF5D122681370F2E71F
:105EB00037B50D46114601920446FFF7E5FF019AFA
:105EC00028B92046FFF7C9FF204603B030BDA260C5
:105ED0002946206801F061F82268A3680021D154A6
:105EE000F2E7002313B5C0E900330446836003736F
:105EF00041B10846019101F0BAF8019902462046E5
:105F0000FFF7D6FF204602B010BD13B5044659B1C5
:105F10000846019101F0ABF8019902462046FFF7CF
:105F2000C7FF204602B010BDFFF797FFF9E710B595
:105F300004468AB00023C4E90033A36023730846F3
:105F400001A900F0B3F901A92046FFF7DEFF2046C2
:105F50000AB010BD054B02221A60054B054A9A6033
:105F60000020186098809871FFF74CB9DCE5032099
:105F7000D0E503200000FFFF024B1A68024B1A60B5
:105F8000704700BF4CE20320E0E50320F8B587B27C
:105F9000044638460D46164600F03AFA60B1022132
:105FA0003846FFF717F8022806D132462946204620
:105FB000BDE8F840FFF78EB8F8BD704741747047F0
:105FC000704708B5007CFFF7D5F820EAE07008BDFF
:105FD00008B5007CFFF7A6F820EAE07008BD08B518
:105FE000007CFFF7AFF840EAE07008BD08B5007C20
:105FF000FFF7A0F840EAE07008BD007CFFF7AAB800
:1060000037B5457C04462DB1207C03B0BDE8304057
:10601000FFF780B8007C0191FFF7ACF800280199E8
:10602000F2DC284603B030BD10B51421044600F060
:10603000BFFA204610BD000010B54FF0000C04461A
:10604000084611464FF47A72C4E901C2044A22603C
:106050000122207462741A46FFF754F8204610BDDE
:1060600054900D0013B50D4C2178BFF35B8F11F0E8
:10607000010110D120460191FEF713F8019950B1AA
:10608000074B084A0848FFF7D7FF2046FEF70EF8EF
:10609000064800F079FF044802B010BDE4E5032093
:1060A0006CE60320E8E50320F0E60320C15F0D0065
:1060B000417470477047704708B50021007CFFF7B6
:1060C00081F840EAE07008BD08B50121007CFFF7C7
:1060D00079F840EAE07008BD08B5007CFFF76AF87F
:1060E00020EAE07008BD08B5007CFFF75BF820EA05
:1060F000E07008BD13B50446007C0191FFF75AF823
:106100000028019901DC607C20B1207CFFF762F857
:1061100020EAE07002B010BD007CFFF763B810B554
:106120001421044600F044FA204610BD10B54FF487
:106130007A73044608460021C4E90113044B236026
:106140000123207463741146FFF71CF8204610BD2C
:1061500084900D00007C0022FFF71CB810B51422BB
:106160000446002100F027FF204610BD10B50F4C5B
:1061700088B003A8FFF7F2FF2178BFF35B8F11F01F
:1061800001010FD120460191FDF78BFF019948B124
:1061900003AA0748FFF7CAFF2046FDF787FF054817
:1061A00000F0F2FE024808B010BD00BF04E7032073
:1061B00008E70320B5600D00002240681146FFF794
:1061C00095B8002240681146FFF7B0B80022406839
:1061D0001146FFF7BBB840680022FFF7AFB8406830
:1061E000002281F00101FFF799B8002340681A46A8
:1061F0001946FFF78BB8002340681A461946FFF787
:106200007DB8002240681146FFF760B84068002260
:106210000221FFF763B8002340681A46FFF74EB823
:10622000024B04225A60024A1A6070471CE703209E
:10623000B4900D0010B5044600F019FF0138231882
:106240002046834206D90278197800F8011B03F82A
:106250000129F6E710BD70B50C46911E22290546AE
:1062600022D820466DB1B5FBF2F602FB1655E9B215
:10627000092D94BF30315731C9B200F8011B3546A2
:10628000F0E7024623443021934202D902F8011B71
:10629000FAE71A1A834238BF0022002383542046AB
:1062A000FFF7C8FF204670BD0020FCE738B5031E8D
:1062B0000C4615460EDAB3F1004F4FF02D0214BF15
:1062C0005842184601230A702A461944FFF7C3FFB3
:1062D000204638BD0123F9E7014B1860704700BF25
:1062E00050E2032008B50B4B43B1FFF73FFF0368B3
:1062F0001B699847002801DDAFF30080064B43B1CE
:10630000FFF7B0FE03681B699847002801DDAFF373
:10631000008008BD000000000000000008B5FFF785
:10632000E1FFFEF747FE014B186008BD38E7032088
:106330000548064A064908B5121A00F02EFE054B1C
:10634000054A1A6008BD00BF00F4032004F40320CE
:1063500090930D0000F403201E1C279A07B500231C
:1063600000931A466FF07701FEF776FF03B05DF8F1
:1063700004FB000007B543880A2B08D0502B0BD133
:10638000094B1B684BB103B05DF804EB1847FFF7EE
:10639000E5FF03B05DF804FB002300931A466FF09D
:1063A0007701FEF759FFF4E728E7032010B51248FC
:1063B0000021FFF71BF8114B1A68114B9A42114B41
:1063C0000CBF012200221A7001D0FFF7B1FFFEF7C7
:1063D000D9FD044600F0F8FD0B4B13B12046AFF396
:1063E000008000210848FEF761FFBDE81040074823
:1063F0000021FEF727BF00BFD9620D0000F4032083
:106400001E1C279A24E703200000000075630D007E
:10641000232813B502D9002002B010BDA0F10B0350
:10642000022B1AD8174C2178BFF35B8F11F00101B2
:106430000BD120460191FDF734FE019928B1124895
:10644000FFF7FAFC2046FDF731FE0F4B1878FEF7F8
:1064500051FE0028DFD10120DEE7012809D800F035
:1064600083F80021007CFEF70DFE80F00100C0B231
:10647000D2E709380128EED8FFF7F4FD007CFEF7DB
:1064800071FEF2E72CE7032030E70320232838B51C
:1064900004460D460AD8FF2908D0FFF7B9FF28B1F6
:1064A00029462046BDE83840FEF79CBD38BD38B5CA
:1064B00004460D46FEF79EFDFF2810D0062804D89E
:1064C0004D2323FA00F0C30709D42046FFF7A0FFAD
:1064D00028B129462046BDE83840FEF793BD38BDB7
:1064E00010B50446FEF786FD031FDBB2012B08D969
:1064F0002046FFF78DFF20B12046BDE81040FEF793
:1065000089BD002010BD0D2810B504469CBF0E3477
:10651000A4B22046FFF77CFF50B103212046FEF7CE
:1065200059FD032804D12046BDE81040FEF77ABD8E
:10653000002010BD7047000038B50023202543809F
:10654000142304460380856005610649284600F04F
:1065500031F804496060284600F02CF8E0602046DD
:1065600038BD00BFE8900D0030B50E4D2978BFF35F
:106570005B8F11F0010487B011D12846FDF791FD22
:1065800068B101A8FFF7D8FF01AA21460648FFF726
:1065900081FA2846FDF78AFD044800F0F5FC024820
:1065A00007B030BD3CE7032040E7032035650D0010
:1065B000FDF775BDFDF771BD08B5FEF707FF0000DB
:1065C00081F0004102E000BF83F0004330B54FEAA4
:1065D00041044FEA430594EA050F08BF90EA020F11
:1065E0001FBF54EA000C55EA020C7FEA645C7FEAA4
:1065F000655C00F0E2804FEA5454D4EB5555B8BFC7
:106600006D420CDD2C4480EA020281EA030382EA37
:10661000000083EA010180EA020281EA0303362DC9
:1066200088BF30BD11F0004F4FEA01314FF4801C9C
:106630004CEA113102D0404261EB410113F0004FAE
:106640004FEA03334CEA133302D0524263EB430365
:1066500094EA050F00F0A780A4F10104D5F1200E03
:106660000DDB02FA0EFC22FA05F2801841F100015E
:1066700003FA0EF2801843FA05F359410EE0A5F132
:1066800020050EF1200E012A03FA0EFC28BF4CF063
:10669000020C43FA05F3C01851EBE37101F0004519
:1066A00007D54FF0000EDCF1000C7EEB00006EEB26
:1066B0000101B1F5801F1BD3B1F5001F0CD34908B0
:1066C0005FEA30004FEA3C0C04F101044FEA445207
:1066D00012F5800F80F09A80BCF1004F08BF5FEA8E
:1066E000500C50F1000041EB045141EA050130BD6E
:1066F0005FEA4C0C404141EB0101013C28BFB1F580
:10670000801FE9D291F0000F04BF01460020B1FACA
:1067100081F308BF2033A3F10B03B3F120020CDA9D
:106720000C3208DD02F1140CC2F10C0201FA0CF07B
:1067300021FA02F10CE002F11402D8BFC2F1200CE0
:1067400001FA02F120FA0CFCDCBF41EA0C01904096
:10675000E41AA2BF01EB0451294330BD6FEA0404DF
:106760001F3C1CDA0C340EDC04F11404C4F12002CA
:1067700020FA04F001FA02F340EA030021FA04F3DC
:1067800045EA030130BDC4F10C04C4F1200220FA33
:1067900002F001FA04F340EA0300294630BD21FA71
:1067A00004F0294630BD94F0000F83F4801306BF37
:1067B00081F480110134013D4EE77FEA645C18BF2B
:1067C0007FEA655C29D094EA050F08BF90EA020FC2
:1067D00005D054EA000C04BF1946104630BD91EABA
:1067E000030F1EBF0021002030BD5FEA545C05D1BD
:1067F0004000494128BF41F0004130BD14F58004FC
:106800003CBF01F5801130BD01F0004545F0FE416F
:1068100041F470014FF0000030BD7FEA645C1ABFA4
:10682000194610467FEA655C1CBF0B46024650EADB
:10683000013406BF52EA033591EA030F41F4002107
:1068400030BD00BF90F0000F04BF0021704730B58D
:106850004FF4806404F132044FF000054FF0000162
:1068600050E700BF90F0000F04BF0021704730B523
:106870004FF4806404F1320410F0004548BF4042F8
:106880004FF000013EE700BF42004FEAE2014FEA4D
:1068900031014FEA02701FBF12F07F4393F07F4F28
:1068A00081F06051704732F07F4208BF704793F02B
:1068B0007F4F04BF41F40021704730B54FF460743E
:1068C00001F0004521F000411CE700BF50EA010241
:1068D00008BF704730B54FF000050AE050EA0102EA
:1068E00008BF704730B511F0004502D5404261EB5A
:1068F00041014FF4806404F132045FEA915C3FF49B
:10690000D8AE4FF003025FEADC0C18BF03325FEA37
:10691000DC0C18BF033202EBDC02C2F1200300FAE8
:1069200003FC20FA02F001FA03FE40EA0E0021FA0D
:1069300002F11444BDE600BF70B54FF0FF0C4CF4FB
:10694000E06C1CEA11541DBF1CEA135594EA0C0FAD
:1069500095EA0C0F00F0DEF82C4481EA030621EAE8
:106960004C5123EA4C5350EA013518BF52EA033523
:1069700041F4801143F4801338D0A0FB02CE4FF0D5
:106980000005E1FB02E506F00042E0FB03E54FF005
:106990000006E1FB03569CF0000F18BF4EF0010EFD
:1069A000A4F1FF04B6F5007F64F5407404D25FEAF9
:1069B0004E0E6D4146EB060642EAC62141EA5551AC
:1069C0004FEAC52040EA5E504FEACE2EB4F1FD0CEE
:1069D00088BFBCF5E06F1ED8BEF1004F08BF5FEA6C
:1069E000500E50F1000041EB045170BD06F000461E
:1069F00046EA010140EA020081EA0301B4EB5C04CB
:106A0000C2BFD4EB0C0541EA045170BD41F48011C2
:106A10004FF0000E013C00F3AB8014F1360FDEBFE7
:106A2000002001F0004170BDC4F10004203C35DAC3
:106A30000C341BDC04F11404C4F1200500FA05F346
:106A400020FA04F001FA05F240EA020001F00042E7
:106A500021F0004110EBD37021FA04F642EB06015D
:106A60005EEA430E08BF20EAD37070BDC4F10C0487
:106A7000C4F1200500FA04F320FA05F001FA04F24B
:106A800040EA020001F0004110EBD37041F1000137
:106A90005EEA430E08BF20EAD37070BDC4F1200542
:106AA00000FA05F24EEA020E20FA04F301FA05F2AA
:106AB00043EA020321FA04F001F0004121FA04F252
:106AC00020EA020000EBD3705EEA430E08BF20EA22
:106AD000D37070BD94F0000F0FD101F0004640005C
:106AE00041EB010111F4801F08BF013CF7D041EADE
:106AF000060195F0000F18BF704703F000465200E2
:106B000043EB030313F4801F08BF013DF7D043EAB2
:106B10000603704794EA0C0F0CEA135518BF95EA68
:106B20000C0F0CD050EA410618BF52EA4306D1D1EF
:106B300081EA030101F000414FF0000070BD50EA0E
:106B4000410606BF1046194652EA430619D094EA98
:106B50000C0F02D150EA013613D195EA0C0F05D182
:106B600052EA03361CBF104619460AD181EA0301D6
:106B700001F0004141F0FE4141F470014FF000008E
:106B800070BD41F0FE4141F4780170BD70B54FF029
:106B9000FF0C4CF4E06C1CEA11541DBF1CEA1355A9
:106BA00094EA0C0F95EA0C0F00F0A7F8A4EB05048B
:106BB00081EA030E52EA03354FEA013100F0888082
:106BC0004FEA03334FF0805545EA131343EA12634B
:106BD0004FEA022245EA111545EA10654FEA002600
:106BE0000EF000419D4208BF964244F1FD0404F5B9
:106BF000407402D25B084FEA3202B61A65EB030515
:106C00005B084FEA32024FF480104FF4002CB6EBD1
:106C1000020E75EB030E22BFB61A754640EA0C0051
:106C20005B084FEA3202B6EB020E75EB030E22BF91
:106C3000B61A754640EA5C005B084FEA3202B6EBD2
:106C4000020E75EB030E22BFB61A754640EA9C0091
:106C50005B084FEA3202B6EB020E75EB030E22BF61
:106C6000B61A754640EADC0055EA060E18D04FEA1F
:106C7000051545EA16754FEA06164FEAC30343EABF
:106C800052734FEAC2025FEA1C1CC0D111F4801F8C
:106C90000BD141EA00014FF000004FF0004CB6E785
:106CA00011F4801F04BF01430020B4F1FD0C88BF24
:106CB000BCF5E06F3FF6AFAEB5EB030C04BFB6EB2F
:106CC000020C5FEA500C50F1000041EB045170BD22
:106CD0000EF0004E4EEA113114EB5C04C2BFD4EB4F
:106CE0000C0541EA045170BD41F480114FF0000ED3
:106CF000013C90E645EA060E8DE60CEA135594EA4F
:106D00000C0F08BF95EA0C0F3FF43BAF94EA0C0F51
:106D10000AD150EA01347FF434AF95EA0C0F7FF4C6
:106D200025AF104619462CE795EA0C0F06D152EA1A
:106D300003353FF4FDAE1046194622E750EA4106FE
:106D400018BF52EA43067FF4C5AE50EA41047FF40F
:106D50000DAF52EA43057FF4EBAE12E74FF0FF3C74
:106D600006E000BF4FF0010C02E000BF4FF0010C45
:106D70004DF804CD4FEA410C7FEA6C5C4FEA430CBE
:106D800018BF7FEA6C5C1BD001B050EA410C0CBF0D
:106D900052EA430C91EA030F02BF90EA020F00206F
:106DA000704710F1000F91EA030F58BF994208BFD6
:106DB00090422CBFD8176FEAE37040F00100704793
:106DC0004FEA410C7FEA6C5C02D150EA013C07D1EA
:106DD0004FEA430C7FEA6C5CD6D152EA033CD3D035
:106DE0005DF8040B704700BF8446104662468C462F
:106DF0001946634600E000BF01B5FFF7B7FF002862
:106E000048BF10F1000F01BD4DF808EDFFF7F4FF8A
:106E10000CBF012000205DF808FB00BF4DF808ED15
:106E2000FFF7EAFF34BF012000205DF808FB00BF38
:106E30004DF808EDFFF7E0FF94BF012000205DF85A
:106E400008FB00BF4DF808EDFFF7CEFF94BF01200F
:106E500000205DF808FB00BF4DF808EDFFF7C4FF08
:106E600034BF012000205DF808FB00BF4A0011D2AA
:106E700012F5001211D20DD56FF47873B3EB625294
:106E80000ED44FEAC12343F0004343EA505323FAA0
:106E900002F070474FF00000704750EA013002D115
:106EA0004FF0FF3070474FF0000070474FEA41024B
:106EB000B2F1E04324BFB3F5001CDCF1FE5C0DD958
:106EC00001F0004C4FEAC0024CEA5070B2F1004FA2
:106ED00040EB830008BF20F00100704711F0804FA5
:106EE00021D113F13872BCBF01F00040704741F46A
:106EF00080114FEA5252C2F11802C2F1200C10FA6E
:106F00000CF320FA02F018BF40F001004FEAC12351
:106F10004FEAD32303FA0CFC40EA0C0023FA02F3F5
:106F20004FEA4303CCE77FEA625307D150EA0133CB
:106F30001EBF4FF0FE4040F44000704701F000409B
:106F400040F0FE4040F40000704700BFD0B50C4B4D
:106F5000002206460F46FFF7EFFCFFF787FF0446C7
:106F6000FFF770FC074B0022FFF7E6FC02460B46DA
:106F700030463946FFF728FBFFF778FF2146D0BDA2
:106F80000000F03D0000F041002301461A4618467B
:106F900000F0E8BE002100F0ADBE0A44914200F1CD
:106FA000FF3300D1704710B511F8014B03F8014FC2
:106FB0009142F9D110BD02440346934200D170477B
:106FC00003F8011BF9E7000038B50D4B1D68AB6BEA
:106FD00004467BB91820FEF7D1F90A4A0A4BA86388
:106FE000C0E90023094B83600B2383810122002326
:106FF000C0E90423AB6B00221C615A6138BD00BF9D
:1070000050E203200E33CDAB34126DE6ECDE05000A
:1070100010F8012B11F8013B012A28BF9A42F7D042
:10702000D01A7047034611F8012B03F8012B002AF0
:10703000F9D17047024B0146186800F003B800BF51
:1070400050E2032037B5044608460D4600F00FF81D
:10705000421C114620460192FEF7C0F9044618B1C1
:10706000019A2946FFF799FF204603B030BD034639
:1070700013F8012B002AFBD1181A0138704710B5FC
:107080006AB10139841810F8013B11F8012F9342BD
:1070900003D1A04201D0002BF5D1981A10BD1046A3
:1070A000FCE770B504460D4645EC104B164601F062
:1070B0002BFD51EC100B7EB1C5F30A53C3F16B03EA
:1070C000002B09DD1B0503F17F55002405F5401554
:1070D00022462B46FFF730FC70BD00000000000088
:1070E0002DE9F04FA3B01F4600231E93A44B199225
:1070F0001B680793044618468846FFF7B8FF4FF011
:10710000000A05464FF0000BCDF874801D9B1A78DD
:107110002B2A4CD039D80D2A32D8082A32D8002A46
:107120003CD000230E931D9E3378302B40F0B4806A
:10713000737803F0DF03582B6CD10E9B01931EABC9
:10714000029700938F4A1FAB1DA9204600F0D4FE82
:1071500010F00707054605D0062F2AD10136002377
:107160001D960E93199B002B40F096850E9BDBB16C
:1071700052460BF1004343EC102B23B0BDE8F08FD7
:10718000202ACED101331D93C0E72D2AC9D1012277
:107190000E925A1C1D925B78002BC4D1199BCDF81E
:1071A0007480002B40F0768552465B46E3E7002270
:1071B000EEE71E9A3AB1352120A801F0A4FD1E99F0
:1071C000204601F0D8F9013F052F07D8DFE807F086
:1071D0000E0B181D0E034FF0000BDA462807C1D521
:1071E0004BF0004BBEE7DDE920ABF7E7DDE920A37C
:1071F0001F9A23F4801302F2334243EA025BEDE765
:10720000DFF884B14FF0000AE8E76FF0004B4FF071
:10721000FF3AE3E71D9B5A1C1D925B78302BF9D097
:10722000002B9FD001234FF0000904931D9B0A936C
:10723000CDF824904F460A221D980678A6F1300317
:10724000D9B209292AD907992A46FFF718FF98B316
:10725000002033463D4607900246652B01D0452B62
:1072600018D11DB9049B034398D00025DDF8748024
:1072700008F101031D9398F801302B2B75D02D2BAD
:107280007BD04FF0000CA3F13001092940F282803D
:10729000CDF8748000269DE00023C4E7082FD8BFF6
:1072A000099900F10100DABF02FB0133099302FBE7
:1072B000093901371D90BFE71D9B5A191D925B5D6F
:1072C000002F37D007903D46A3F13002092A12D98A
:1072D0000122C2E71D9B5A1C1D925B780130302BA6
:1072E000F8D0A3F13102082A00F2DB841D9A07903E
:1072F00000200A920546303B00F1010214D00799A4
:10730000114407912A4600EB050E0A21724513D15C
:107310002A18082A05F1010505441CDC09990A22EE
:1073200002FB0133099300221D9B591C1D915B78C0
:107330001046C9E73846D2E7082A04DC099E4E43C6
:1073400009960132E2E702F1010CBCF1100FD8BF3F
:1073500001FB09F9F5E7102DDCBF0A2202FB093910
:10736000E1E70023079301227CE74FF0000C08F1CE
:1073700002031D9398F8023085E74FF0010CF6E701
:107380004C920D00F8900D000000F07F1D9B591CE1
:107390001D915B78302BF9D0A3F1310108293FF61C
:1073A00079AFA3F1300E1D9B08931D9B591C1D91B5
:1073B0005B78A3F13006092E37D9089E891B08296E
:1073C00044F61F6602DC7645A8BF7646BCF1000F86
:1073D00000D07642002D4FD1049901437FF4C2AE14
:1073E000002A7FF4DBAE692B27D024DC492B24D084
:1073F0004E2B7FF4D3AE9E491DA800F0C3FF00289A
:107400003FF4CCAE1D9B1B78282B2DD1994920AA87
:107410001DA800F0CBFF052826D1219BDDF880A018
:1074200043F0FF4B4BF4E00B9CE60A2101FB0E3EC0
:10743000AEF1300EB9E76E2BDBE78F491DA800F0E7
:10744000A1FF00283FF4AAAE1D9B8C49013B1DA85B
:107450001D9300F097FF10B91D9B01331D93DFF8BA
:107460002CB24FF0000A7DE6854801F0A1FC8DEDBD
:10747000040BDDE904AB75E6079B0998F31A002FAE
:1074800008BF2F46102D0893A846A8BF4FF010083C
:10749000FFF7D8F9092D82468B4613DD794B03EBB4
:1074A000C80353E91223FFF747FA824648468B4642
:1074B000FFF7C8F902460B4650465946FFF786F8D3
:1074C00082468B460F2D38DC089B002B3FF44AAEDA
:1074D00024DD162B0BDC6B4D05EBC305D5E9000154
:1074E00052465B46FFF728FA82468B463AE6089AF0
:1074F000C5F12503934220DB624CC5F10F0504EB77
:10750000C50152465B46D1E90001FFF715FA089B19
:107510005D1B04EBC504D4E90023E3E7089B1633A5
:107520000BDB079B574A9E1B02EBC606D6E90023DE
:1075300050465946FFF72AFBD6E7089BA5EB0808FB
:107540009844B8F1000F71DD18F00F030AD04D49CF
:1075500001EBC30152465B46D1E90001FFF7ECF9AC
:1075600082468B4638F00F084DD0B8F59A7F22DD61
:1075700000252E46099507952223DFF810B12360D8
:107580004FF0000A099B002B3FF4ECAD1E992046FA
:1075900000F0F1FF0799204600F0EDFF314620464C
:1075A00000F0E9FF0999204600F0E5FF2946204652
:1075B00000F0E1FFD6E500234FEA2818504659466F
:1075C0009946B8F1010F21DC0BB182468B462E4B58
:1075D000ABF1547B03EBC90952465B46D9E9000184
:1075E000FFF7AAF9294B0A460B4029498B428246EC
:1075F000BED8A1F580118B4286BFDFF898B04FF05E
:10760000FF3A02F1547B0023049381E018F0010F4C
:1076100007D01D4B03EBC903D3E90023FFF78CF917
:10762000012309F101094FEA6808CAE7EBD0C8F164
:10763000000818F00F020AD0124B03EBC2035046A9
:107640005946D3E90023FFF7A1FA82468B465FEA49
:107650002818D8D0B8F11F0F1EDD00252E46099539
:10766000079522234FF0000A4FF0000B236089E7B3
:10767000F2900D000C910D00E9900D00EC900D00C2
:10768000A78E0D0088920D0060920D000000F07F23
:107690000000A07CFFFFEF7F18F0100318BF6A23E3
:1076A000DFF8B493049350465946002318F0010FB5
:1076B00004D0D9E90023FFF73FF901235FEA680806
:1076C00009F10809F2D10BB182468B46049BBBB18C
:1076D000CBF30A53C3F16B03002B594610DD1F2B6C
:1076E00040F32881342BDEBF203B4FF0FF3202FAFB
:1076F00003F34FF0000ACCBF4FF05C7B03EA010BB1
:107700000022002350465946FFF77EFB0028A4D1F3
:10771000099B00930A992B463A46204600F080FFC9
:10772000099000283FF424AF079B9E1B089B002B69
:10773000B4BF334600231093089B002523EAE3736C
:1077400018932E46099B2046596800F0E0FE0790EA
:1077500000283FF411AF099B1A69023203F10C01B2
:1077600092000C30FFF719FC4BEC10AB20AA1FA9BC
:107770002046CDE90AAB01F043FA1E9000283FF401
:10778000FBAE0121204600F0D9FF064600283FF459
:10779000F3AE1F9B0499002BABBF109A189A189F49
:1077A000DDF84090ACBF03EB0209D71A209AA3EB97
:1077B00001089044A34B08F1FF389845C2F1360206
:1077C00080F2CC80A3EB08031F2BA2EB03024FF047
:1077D000010100F3B68001FA03F3119300230C9327
:1077E00009EB0208049BC14517441F444B46A8BF40
:1077F0004346BB42A8BF3B46002BC2BFA8EB0308D1
:10780000FF1AA9EB0309109B002B17DD31461A461E
:10781000204601F039F8064600283FF4ADAE014697
:107820001E9A204600F093FF0F9000283FF4A4AE6C
:107830001E99204600F09FFE0F9B1E93B8F1000F8B
:1078400000F39180089B002B08DD189A07992046C9
:1078500001F01AF8079000283FF48EAE002F08DDE3
:1078600007993A46204601F05DF8079000283FF45A
:1078700083AEB9F1000F08DD31464A46204601F0DB
:1078800051F8064600283FF477AE079A1E99204625
:1078900001F0C3F8054600283FF46EAEC3680F93AD
:1078A0000023C360314601F09CF8002865DA0F9B85
:1078B00053EA0A0340F08780CBF31303002B40F018
:1078C00082802BF000431B0D1B05B3F1D66F7AD9D4
:1078D0006B6913B92B69012B75DD294601222046FE
:1078E00001F020F83146054601F07BF800286ADDFA
:1078F0000499554A5B46002900F0858002EA0B0195
:10790000B1F1D66F7FDCB1F15C7F7FF7AAAE4F4A51
:107910000023CDE916325046DDE916235946FFF71C
:107920000BF80B46034308BF222382468B4608BF51
:1079300023602BE64FF0FF3202FA03F303EA0A0A50
:10794000DEE6C8F17F4808F57F0808F57B4808F1B6
:10795000E20801FA08F30C93119141E700230C931C
:10796000012311933CE71E994246204600F0DAFFBE
:107970001E9000287FF466AFFEE55F466ED10F9A39
:10798000CBF3130342B3324A934228D1049B5046AF
:10799000EBB12D4A3A40B2F1D46F4FF0FF3119D814
:1079A000120DC2F16B0301FA03F3984217D1294B70
:1079B0009F4202D101303FF4DFAD234B3B4003F542
:1079C000801B4FF0000A049B002BA0D1DEE54FF096
:1079D000FF33EAE70B46E8E753EA0A0388D00C9B3B
:1079E000DBB13B42EFD00F9B049A50465946C3B1DE
:1079F000FFF757FB02460B46DDE90A01FEF7E6FDFD
:107A000082468B46DFE71340A3F580136FEA135BD2
:107A10006FEA0B5B4FF0FF3AD5E7119B13EA0A0FB1
:107A2000E0E7FFF73EFB02460B46DDE90A01FEF701
:107A3000CBFD0022002382468B46FFF7E5F90028A4
:107A4000C1D00EE602FCFFFF0000F07F00005039BD
:107A5000FFFF0F00FFFFEF7F20910D00314628460A
:107A600001F01EF959EC108B10EE100A00224FF0B5
:107A700080434946FFF7DCF900287CD00F9B002BA0
:107A80004CD0954B0022CDE90C23DFF84C924FF0FF
:107A90000008924B3B401193119A914B9A4240F04F
:107AA000B280DDE90A23DDE90C01A7F1547B4BEC40
:107AB00010ABCDE91623CDE90C0101F025F8DDE985
:107AC0000C0153EC102BFEF737FF52465B46FEF7D6
:107AD0007DFD0B468149834A1940914282465ED919
:107AE0000B9B02F15472934203D10A9B01333FF482
:107AF00043ADDFF8FCB14FF0FF3A1E99204600F08D
:107B00003AFD0799204600F036FD3146204600F048
:107B100032FD2946204600F02EFD13E6BAF1000F93
:107B20001BD1CBF31303F3B96B4B002240464946FC
:107B3000FFF774F9D0B9404649466B4B0022FEF777
:107B4000FBFE8046894609F10043CDF868801B930F
:107B5000DDE91A23CDE90C239BE7BAF1010F02D12D
:107B6000002F3FF47EAD614B00228CE7DFF8789167
:107B70004FF00008E7E75C4B404649460022FEF71D
:107B8000DBFE0F9B8046894633B901F1004312901A
:107B90001393DDE91223DDE7CDE91289F9E703F15B
:107BA000547B049B002BA8D12BF00043119A1B0D92
:107BB0001B059A42A1D14046494601F00FF9FEF754
:107BC0008DFE02460B4640464946FEF7FDFC0F9AE5
:107BD000CBF3130343EA0A0313438046894653D089
:107BE00035A3D3E90023FFF719F900287FF4CEACC1
:107BF00033A3D3E9002340464946FFF72DF9002877
:107C00003FF47BAFC2E4049B33B3119BB3F1D46F59
:107C100022D82DA3D3E9002340464946FFF708F9AF
:107C2000A0B149464046FFF721F9012838BF01209D
:107C3000FEF708FE0F9B8046894613BB01F1004307
:107C400014901593DDE91423CDE90C230D9B119AB3
:107C500003F1D6639B1A0D93DDE90C019DED0A0B30
:107C6000CDE90C0100F050FFDDE90C0153EC102BC5
:107C7000FEF762FEDDE90A23FEF7A8FC82468B468A
:107C80008FE7CDE91489DDE711A3D3E90023FFF7DE
:107C9000C5F8B4E700230E93199A1D9B1360FFF7F4
:107CA00065BA652B3FF45DAB452B3FF45AAB01221F
:107CB000FFF792BBAFF300809535A094FFFFDF3F45
:107CC00035E5AF350000E03F0000C0FFFFFFDF41BA
:107CD0009535A094FFFFCF3F0000F03F0000F07FFC
:107CE0000000E07FFFFF9F7C0000E03F0000F0BF4E
:107CF000FFFFEF7F0A4601460248034B0068FFF78B
:107D0000EFB900BF50E20320BCE20320F0B508B990
:107D1000106888B10446204614F8015B0F4617F836
:107D2000016B1EB965B91560284605E0B542F6D16C
:107D3000002BF0D114600370F0BD1C460CE015B9A7
:107D400014F8013B0E4616F8015BAB42F7D1002B4D
:107D5000F3D0002304F8013C1460EDE70123FFF7A2
:107D6000D5BF00002DE9F843DFF8B8800646D8F803
:107D700000001F460D46914600F0B4FB254B1C68E1
:107D800034B9254C1C60254B13B11B68C4F88830EE
:107D900063681F2B07DDD8F8000000F0A5FB4FF04B
:107DA000FF30BDE8F8834EB3D4F8880088B91C4B87
:107DB00023B9D8F8000000F096FBF0E74FF4847088
:107DC000FDF7DCFA0028F4D00023C0E94033C4F802
:107DD0008800636840F8239001229A4000EB8301F9
:107DE000D0F800311343022EC0F80031C1F8807082
:107DF00002BFD0F804311A43C0F804216368D8F8F0
:107E000000005A1C0233626044F8235000F06CFBFF
:107E10000020C6E7E0E7032054E70320000000004D
:107E20007D530D00B4E203200369B3EB611F2DE91C
:107E3000F0434FEA611200F1140445DD11F01F0117
:107E400004EB830604EB82050CD100F110072946F0
:107E5000B14234D39B1A9B00EA1E964238BF0023DE
:107E6000234415E054F82270C1F12008CF4005F1F9
:107E7000040EA1467645F44615D89B1A9A00043A9A
:107E80000135AE4238BF0022A318A75007B1043312
:107E90001A1BA3424FEAA20208BF0023026108BFD7
:107EA0004361BDE8F083DCF800C00CFA08FC4CEA42
:107EB000070749F8047B5EF8047BCF40DAE751F806
:107EC00004CB47F804CFC3E72346E1E7A0F1300332
:107ED000092B02D82038C0B27047A0F16103052BEE
:107EE00001D84738F7E7A0F14103052B01D827381F
:107EF000F1E70020704700002DE9F04F2DED028BD7
:107F000089B008EE100A0493BC4B1B680193184615
:107F10008B469046FFF7ABF8019BDBF8002003444B
:107F2000824613F8013C0593931CC2F1FF2202F52F
:107F30007F02FE32D1181F4613F8010B0091302842
:107F4000F8D0FFF7C3FF044600283AD10199524602
:107F50003846FFF794F80546002868D117F80A005C
:107F600007EB0A06FFF7B2FF002862D03346187805
:107F700030281F4603F10103F9D0FFF7A7FF0123C3
:107F8000B0FA80F46409354600933A461646013249
:107F90003078FFF79BFF0028F8D101995246304610
:107FA000FFF76DF880B94DB906EB0A052A4616466B
:107FB00001323078FFF78AFF0028F8D1AD1BAD0001
:107FC00004E000242546E0E7002DF7D1337803F0E4
:107FD000DF03502B3BD173782B2B2CD02D2B2ED0A5
:107FE000711C4FF000090878FFF770FF431EDBB2E9
:107FF000182B2CD8A0F1100211F8010FFFF766FF23
:10800000431EDBB2182B1DD9B9F1000F00D052422C
:108010001544CBF80010E4B1009B002B14BF0027DF
:108020000627384609B0BDEC028BBDE8F08F3E460E
:1080300025460124CAE74FF00009B11CD3E74FF0F1
:108040000109FAE70A2303FB0202103AD4E731469A
:10805000DFE7F31B013B2146072B52DC18EE100A29
:1080600000F055FA4FF0000B00F11409CAF10103BA
:108070000446CDF80890CDF800B00693B74243D33C
:108080000298009B40F8043BA0EB090080104601D9
:108090002061184600F002FB301AD8F80060B042A8
:1080A00066DD871B3946204600F050FE8246A8B1A7
:1080B0007B1E591103F01F0259F821104FF0010ADD
:1080C0000AFA02F20A4209D0534505DDB91E2046DC
:1080D00000F03CFE002848D14FF0020A3946204605
:1080E000FFF7A2FE3D44D8F80830AB424FDA18EE55
:1080F000100A214600F03FFA149A00231360A327C8
:108100008FE701315B10A7E7731E059A039316F8FA
:10811000013C934219D0BBF1200F07D1029B009A7A
:1081200043F8042B0293002300939B4616F8010C9E
:10813000FFF7CCFE009B00F00F0000FA0BF00343AA
:1081400000930BF1040B039B0DE0039B069A134471
:10815000BB42E0D31846019907935246FEF78FFFC2
:10816000079B0028D7D11E4688E74FF0030AB5E7E2
:108170000ADA371A214618EE100A3A4600F0D2FB06
:10818000ED1B044600F114094FF0000AABE7D8F8E4
:108190000400A8426DDD451BAE4231DCD8F80C303E
:1081A000022B23D0032B25D0012B15D1AE4213D1A6
:1081B000012E0BD1049AD8F80430136001232361F7
:1081C000C9F80030149B62271C602AE7711E204604
:1081D00000F0BCFD0028EDD118EE100A214600F099
:1081E000CAF9149A0023136050271AE7159B002B35
:1081F000F2D1DFE7159B002BDCD1EDE74C920D00AF
:108200006F1EBAF1000F31D127B13946204600F078
:108210009DFD82467B11012159F8233007F01F078D
:1082200001FA07F71F422946204618BF4AF0020A02
:10823000761BFFF7F9FDD8F804500227BAF1000FBA
:1082400048D0D8F80C30022B15D0032B17D0012BB7
:1082500009D11AF0020F06D0D9F800004AEA000A44
:108260001AF0010F0ED147F0100733E04FF0010A6A
:10827000D0E70127E2E7159BC3F101031593159B96
:10828000002BF0D0D4F8109004F114034FEA890BBE
:1082900003EB89014FF0000C184653F8042BB2F1A0
:1082A000FF3F1CD001320260022F04F114033AD1C7
:1082B000D8F80020013AB2420AD17111012253F8D4
:1082C000213006F01F0602FA06F61E4218BF1746B6
:1082D00047F02007149B1C60049B1D60A1E6994297
:1082E00043F804CCD8D8A368994514DB616818EE2C
:1082F000100A013100F00BF92269023204F10C017D
:10830000824692000C30FEF748FE214618EE100A15
:1083100000F031F9544623695A1C04EB83032261AF
:1083200001225A61C0E722694A450BDD012120463E
:10833000FFF77AFDD8F808300135AB42FFF6D7AE2B
:108340000127C5E716F01F06FAD09B44C6F12006A8
:108350005BF8040C00F0A2F9B042E7DBF0E700BFE5
:10836000C2F10802920070B5C2F1200643680468A9
:1083700003FA06F52C43D340046040F8043F8842DA
:10838000F4D370BD30B50368013311F8014B14B953
:108390000360012030BD13F8012BA2F14105192D16
:1083A00098BF2032A242F0D00020F3E72DE9F04F31
:1083B0000B6801685E1102EB860613F01F0387B09D
:1083C00018BF04360025371F82469046019346F8B1
:1083D000045CB9463C460295AB464A784B1C039375
:1083E00042B3104605910492FFF770FD00284FD16B
:1083F000049A0599202A18D8029B9B4513DD4C4509
:1084000006D2072D04DC2A4649462046FFF7A8FF7E
:10841000444550D90023A4F1040944F8043CCDF8A4
:1084200008B04C461D460399D7E7292A56D1023198
:10843000CAF80010BBF1000F50D04C4506D2072DF2
:1084400004DC2A4649462046FFF78AFF444534D9D2
:10845000A8F10402234653F8041B42F8041F9F426C
:10846000F9D23B1B23F0030304330134033EB4422F
:1084700088BF04234344002243F8042B9F42FBD2CD
:108480003B681BB9474527D101233B60052026E007
:108490000135082D0BF1010B06DD4445C3D900233E
:1084A00044F8043C0125043C226800F00F0040EA37
:1084B00002122260B7E70825B5E7019B002BDFD049
:1084C0004FF0FF32C3F1200322FA03F356F8042CD5
:1084D0001A4046F8042CD3E7043FD1E7042007B044
:1084E000BDE8F08F70477047704782B001B901A9AD
:1084F00042B14BB113780B601278101E18BF0120E7
:1085000002B070471046FBE76FF00100F8E770B566
:10851000466A04460D463EB91020FCF72FFFC0E91D
:10852000016660620660C660666AF36883B1636A6A
:10853000DB6853F82500B8B9012101FA05F6721D70
:108540009200204600F023FC60B1C0E901560EE025
:1085500021220421204600F01AFC636AF060DB68E7
:10856000002BE4D1002070BD026843F825200023D1
:10857000C0E90333F7E770B5466A05460C463EB9D5
:108580001020FCF7FBFEC0E9016668620660C66069
:108590003CB16B6A6268DB6853F82210216043F8D3
:1085A000224070BD2DE9F0410E69074698460C4601
:1085B00001F1140000230568A9B202FB01814FEA12
:1085C000114C2D0C02FB05C589B2013301EB0541AD
:1085D0009E4240F8041B4FEA1548ECDCB8F1000F4E
:1085E0001BD0A368B34212DC616838460131FFF743
:1085F0008EFF2269023204F10C01054692000C3014
:10860000FEF7CBFC21463846FFF7B5FF2C4604EBBE
:1086100086030136C3F8148026612046BDE8F08148
:108620002DE9F8430C4615461F4609220833064635
:1086300093FBF2F3002101229A4220DB3046FFF740
:1086400066FF089B4361092D4FF00103036119DDAB
:1086500004F10909C8462C4418F8013B0146303B97
:108660000A223046FFF79EFFA045F5D1A5F1080488
:108670004C442D1B6319BB4207DBBDE8F883520055
:108680000131D9E70A340925F3E714F8013B014623
:10869000303B0A223046FFF785FFEBE7030C1B0453
:1086A000D3B90004102310F07F4F04BF0002083339
:1086B00010F0704F04BF0001043310F0404F04BFAE
:1086C00080000233002805DB10F0804F03F1010326
:1086D00008BF2023184670470023E4E7036813F01F
:1086E000070201460BD0DA0724D4980749BF5B087C
:1086F0009B0801200B605CBF0B600220704798B2A2
:10870000B0B91B0C102013F0FF0F04BF1B0A083078
:108710001A0704BF1B0904309A0704BF9B080230E4
:10872000DA0703D45B0800F1010005D00B60704745
:108730001046E8E7002070472020704710B50C462F
:108740000121FFF7E4FE01224461026110BD2DE921
:10875000F04F15460A692B699A42B8BF0B460C4682
:10876000BCBF2C461D462769D5F81090A3686168E8
:1087700007EB0906B342B8BF013185B0FFF7C7FE6A
:1087800000F1140101EB86080B46002243451DD37E
:1087900004F1140305F1140203EB870702EB8903CC
:1087A00002933B1B153B23F00303043304F115052F
:1087B000AF4238BF04230193029B0392934208D82F
:1087C000002E5ADC066105B0BDE8F08F43F8042B9B
:1087D000DCE7B2F800A0BAF1000F24D004F1140EC7
:1087E00089464FF0000C5EF8045BD9F800B0ABB2DC
:1087F0001FFA8BFB0AFB03B34FEA154BD9F8005065
:1088000063444FEA154C0AFB0BC505EB13459BB2BD
:1088100043EA0543774549F8043B4FEA154CE2D853
:10882000019B41F803C0039BB3F802900432B9F1F5
:10883000000F20D00B6804F1140C8E464FF0000A94
:10884000BCF80050BEF802B009FB05B5AA449BB2C3
:1088500043EA0A434EF8043B5CF8043BBEF8005080
:108860001B0C09FB035303EB1A4367454FEA134AFA
:10887000E6D8019D4B5104319EE758F8043D002B8A
:10888000A0D1013E9CE700002DE9F843154612F007
:10889000030206460F4607D0214C013A002354F844
:1088A0002220FFF77FFE0746AD1035D0746A3CB931
:1088B0001020FCF763FDC0E9014470620460C460ED
:1088C000D6F82480D8F808404CB940F271213046DF
:1088D000FFF734FF0023C8F80800044603604FF098
:1088E0000009EB070AD5394622463046FFF72FFF2D
:1088F000394680463046FFF73EFE47466D100BD0A6
:10890000206838B9224621463046FFF720FF206014
:10891000C0F800900446E4E73846BDE8F88300BF9D
:1089200050930D002DE9F0470C464968236903EB8D
:108930006218A368074691464FEA621A08F10106D9
:10894000B3423FDB3846FFF7E2FD0023054600F166
:10895000140100F110021846534536DB20692AEA5B
:10896000EA7A04F1140319F01F0901EB8A0103EB01
:10897000800C2ED0C9F1200E8A460022186800FA19
:1089800009F002434AF8042B53F8042B9C4522FAC1
:108990000EF2F3D8ACEB0403153B23F003030433CE
:1089A00004F11500604588BF0423CA500AB108F1DC
:1089B0000206013E38462E612146FFF7DCFD2846BF
:1089C000BDE8F08701315B00BAE742F8040F0133DC
:1089D000C2E7043953F8042B41F8042F9C45F9D819
:1089E000E7E730B502690C69121B0ED100F11403E0
:1089F000143103EB840001EB840150F8045D51F85D
:108A0000044DA54203D005D30122104630BD834258
:108A1000F3D3FAE74FF0FF32F7E72DE9F84F0C46B2
:108A20000646114620461746FFF7DBFF051E08D114
:108A300029463046FFF76BFD0123C0E90435BDE848
:108A4000F88FA4BF3B46274630467968A6BF1C4630
:108A500000250125FFF75BFD3E69C560256907F12B
:108A6000140104F1140900F1140E07F1100201EBD6
:108A7000860C09EB8505F246002759F8043B52F8AD
:108A800004BF1FFA83F817FA8BF71B0CA7EB080833
:108A9000C3EB1B4303EB28431FFA88F81F144D4513
:108AA00048EA03434AF8043BE7D82B1B153B23F065
:108AB000030304331534A54238BF04231944734417
:108AC0009E460D4665450ED30CF10302521A22F064
:108AD000030203398C4538BF00221A4452F8043D82
:108AE0007BB10661ABE755F8048B17FA88F42214C2
:108AF00002EB1842A4B244EA02444EF8044B1714A5
:108B0000E0E7013EEAE7000082B08DED000B019B3B
:108B100012491940A1F15071002905DD00220B46D0
:108B200043EC102B02B070474942B1F1A07F4FEAED
:108B300021504FF000024FF0000304DA4FF40021FF
:108B400041FA00F3ECE7A0F114011E29DABF4FF05F
:108B5000004020FA01F101210A46E1E70000F07F20
:108B6000F8B5056900F1140707EB85052E1F55F8C8
:108B7000044C2046FFF792FDC0F120030A28DFF8DD
:108B80007CC00B6014DCC0F10B0E24FA0EF1B7426E
:108B900041EA0C0334BF55F8081C0021153004FAD3
:108BA00000F021FA0EF140EA010243EC102BF8BD6F
:108BB000B7423ABF55F8081CA5F1080600210B384A
:108BC00017D0C0F1200C04FA00F5BE4221FA0CF4D3
:108BD00045EA04058CBF56F8044C002445F07F5349
:108BE00001FA00F024FA0CF443F4401340EA0402C2
:108BF000DBE744EA0C030A46D7E700BF0000F03F7A
:108C00002DE9F7438946012157EC106B9046FFF799
:108C10007EFCC7F30A550446C7F3130335BB002E89
:108C2000019328D068460096FFF758FD009900B3DD
:108C3000019AC0F1200302FA03F30B43C2406361BF
:108C40000192019BA361002B14BF02220122226129
:108C5000D5B1A5F233450544C9F80050C0F135003F
:108C6000C8F80000204603B0BDE8F08343F4801349
:108C7000D5E76161E5E701A8FFF730FD019B63617E
:108C8000012222612030E3E704EB8203A0F23240AC
:108C9000C9F800001869FFF701FDC0EB4210DFE7DB
:108CA0002DE9F74F884669468146FFF759FF01A92C
:108CB000404655EC104BFFF753FFD9F81030D8F869
:108CC0001020A3EB020CDDE900329B1A03EB4C13DE
:108CD00051EC100B002BD6BF0A462A46C3EB0333D8
:108CE0008B462F46D4BF02EB035B02EB03572046B3
:108CF00010EE102A5B463946FDF748FF41EC100B99
:108D000003B0BDE8F08F013970B549111469013124
:108D100002F1140300EB810103EB8404051FA3425D
:108D20000CD3A31A113B23F003031132A24288BFD4
:108D3000002318440023884205D370BD53F8046B08
:108D400045F8046FEBE740F8043BF4E700F1140248
:108D500000694B11984210B511DB0ADD11F01F01BB
:108D600007D052F8234024FA01F000FA01F18C42B6
:108D70000BD102EB8303934203D8002010BD0346BE
:108D8000F7E753F8041D0029F5D00120F6E713B5E5
:108D90004A4311460192FCF721FB044618B1019A9F
:108DA0000021FEF708F9204602B010BD00000000C7
:108DB0009FED010B704700BF000000000000F87F2E
:108DC00049B1FF2A85BF8A2303600A704FF0FF3044
:108DD00098BF0120704708467047000038B5002250
:108DE000002304460D46FEF719F828B92046294607
:108DF000BDE83840FEF7AAB8204605F10041FEF76D
:108E0000A5F8404261EB410138BD00BF21400D0093
:108E10005D400D0085400D0089400D000000000000
:108E20004C61743A202566204C6F6E3A20256620EE
:108E300041636320286D293A2025660062657461CC
:108E40004F6E6C696E650062657461436F6C6F7222
:108E500000626574614C69676874696E6700626579
:108E600074614C6F636174650034006C6F770068E7
:108E70006967680066617200616C7068614F6E6C52
:108E8000696E65006F6666006C69676874696E6715
:108E900031006C69676874696E6732006C69676875
:108EA00074696E6733002C0025737B226D223A2291
:108EB000253032783A253032783A253032783A25E2
:108EC0003032783A253032783A25303278222C22E6
:108ED00073223A25642C2263223A25647D0064655E
:108EE000766963654C6F6361746F720041542654F8
:108EF000007B2277223A7B2261223A007075626CF5
:108F00006973684C6F636174696F6E007363616E3F
:108F1000446174613D257300686F6F6B2D726573DA
:108F2000706F6E73652F25732F257300000000008E
:108F300000000000A9460D00C9460D0000C0014018
:108F400000100240002002402C0100001800000028
:108F5000F40100002C01000050000000000000009F
:108F60000000000049540D004F540D008D540D00B9
:108F70005D540D004B540D00000000000000000087
:108F80001F5A0D00155A0D000B5A0D00015A0D0005
:108F9000F5590D00E9590D00ED5B0D00F55B0D0075
:108FA000DD590D00D5590D00CB590D00C1590D00EB
:108FB000255C0D0000000000000000003D5A0D007F
:108FC000875A0D005F5A0D003F5A0D00675A0D0079
:108FD0006F5A0D00775A0D007F5A0D0000000000F7
:108FE00000000000C95A0D00B95A0D00BB5A0D000F
:108FF000617070000000000000000000AD5B0D001B
:10900000B75B0D00C15B0D00CB5B0D00D55B0D00A8
:10901000E15B0D00ED5B0D00F55B0D00FD5B0D00F0
:10902000095C0D00115C0D001B5C0D00255C0D0042
:1090300025592D256D2D25645425483A254D3A2571
:1090400053257A0061736374696D65000000000048
:1090500000000000BB5F0D0029600D0001600D00E5
:109060000D5D0D00D15F0D00ED5F0D00DF5F0D00A8
:10907000FB5F0D00BD5F0D00C35F0D000000000031
:1090800000000000B7600D001F610D00F5600D00CD
:109090000D5D0D00E7600D00B9600D00C9600D00A9
:1090A00019610D00D9600D00B1600D0000000000D5
:1090B0000000000017620D000D620D0003620D003C
:1090C000B9610D00F7610D00EB610D00ED5B0D0066
:1090D000F55B0D00DF610D00D7610D00CD610D0066
:1090E000C3610D00255C0D00006E6600696E697439
:1090F0007900616E0000000035000000CEFBFFFF2C
:10910000CB0300000100000000000000340000005C
:10911000CEFBFFFFCB0300000100000000000000B9
:10912000BC89D897B2D29C3C33A7A8D523F649393D
:109130003DA7F444FD0FA5329D978CCF08BA5B255F
:10914000436FAC64280668110020202020202020D6
:1091500020202828282828202020202020202020E7
:1091600020202020202020202088101010101010F7
:109170001010101010101010100404040404040443
:1091800004040410101010101010414141414141DD
:1091900001010101010101010101010101010101BF
:1091A00001010101101010101010424242424242CF
:1091B000020202020202020202020202020202028F
:1091C0000202020210101010200000000000000037
:1091D000000000000000000000000000000000008F
:1091E000000000000000000000000000000000007F
:1091F000000000000000000000000000000000006F
:10920000000000000000000000000000000000005E
:10921000000000000000000000000000000000004E
:10922000000000000000000000000000000000003E
:10923000000000000000000000000000000000002E
:109240000000000000000000002E000049920D0008
:10925000A78E0D00B8E203204300504F5349580039
:109260000080E03779C34143176E05B5B5B8934622
:10927000F5F93FE9034F384D321D30F94877825AEE
:109280003CBF737FDD4F1575000000000000F03F0C
:1092900000000000000024400000000000005940D1
:1092A0000000000000408F40000000000088C34024
:1092B00000000000006AF8400000000080842E4199
:1092C00000000000D01263410000000084D79741E5
:1092D0000000000065CDCD41000000205FA00242EB
:1092E000000000E876483742000000A2941A6D4260
:1092F000000040E59C30A2420000901EC4BCD64253
:1093000000003426F56B0C430080E03779C34143FD
:1093100000A0D8855734764300C84E676DC1AB4373
:10932000003D9160E458E143408CB5781DAF154491
:1093300050EFE2D6E41A4B4492D54D06CFF080446C
:10934000F64AE1C7022DB544B49DD9794378EA4481
:1093500005000000190000007D0000007D460D00A2
:10936000C14A0D00654F0D0039540D00295A0D00FA
:109370009D5B0D00F95C0D002D5E0D00555F0D002D
:10938000795F0D0021620D00000000000000000068
:0493900000000000D9
:10939400030000000F0000001100000044900D00C5
:1093A40054E2032000000000000000000000000060
:1093B40000000000000000000000000000000000A9
:1093C4000000000000000000000000000000000099
:1093D4000000000000000000000000000000000089
:1093E4000000000000000000000000000000000079
:1093F4000000000000000000000000000000000069
:1094040000000000E5E70320FF0000004300000027
:109414000000000000000000000000000000000048
:1094240000000000000000000000000043000000F5
:109434000000000000000000000000000000000028
:1094440000000000000000000000000043000000D5
:109454000000000000000000000000000000000008
:1094640000000000000000000000000043000000B5
:1094740000000000000000000000000000000000E8
:109484000000000000000000000000004300000095
:1094940000000000000000000000000000000000C8
:1094A4000000000000000000000000004300000075
:1094B40000000000000000000000000000000000A8
:1094C4000000000000000000000000004300000055
:1094D4000000000000000000000000000000000088
:1094E400000000000000000000000000C18D0D001D
:1094F400EB840D000000000048910D0049920D001E
:10950400A78E0D00A78E0D00A78E0D00A78E0D004F
:10951400A78E0D00A78E0D00A78E0D00A78E0D003F
:10952400A78E0D00FFFFFFFFFFFFFFFFFFFFFFFF01
:10953400FFFF0000010041534349490000000000BF
:109544000000000000000000000000000000000017
:10955400000000000000415343494900000000009E
:1095640000000000000000000000000000000000F7
:089574000000000000000000EF
:10957C00FFFFFFFF00000102030405060708090AAC
:10958C000B0C0D0E0F101112131415161718191AA7
:08959C001B1C1D1E1F202800EE
:0495A40078563412AF
:04000003D0004020C9
:00000001FF
